:100000000C94DD020C9405030C9405030C94050379
:100010000C9405030C9405030C9405030C94050340
:100020000C9405030C9405030C9405030C94050330
:100030000C9405030C9405030C9405030C94050320
:100040000C94700E0C9405030C942E0D0C946112FC
:100050000C9405030C9405030C9405030C94050300
:100060000C94BA0E0C94050300000000003E5B4F98
:100070005B3E3E6B4F6B3E1C3E7C3E1C183C7E3C08
:10008000181C577D571C1C5E7F5E1C00183C180016
:10009000FFE7C3E7FF0018241800FFE7DBE7FF30A6
:1000A000483A060E2629792926407F050507407F14
:1000B00005253F5A3CE73C5A7F3E1C1C08081C1C87
:1000C0003E7F14227F22145F5F005F5F06097F017D
:1000D0007F006689956A606060606094A2FFA29468
:1000E00008047E040810207E201008082A1C080836
:1000F0001C2A08081E101010100C1E0C1E0C303884
:100100003E3830060E3E0E06000000000000005F84
:1001100000000007000700147F147F14242A7F2AA0
:100120001223130864623649562050000807030062
:10013000001C2241000041221C002A1C7F1C2A08AE
:10014000083E080800807030000808080808000011
:1001500060600020100804023E5149453E00427F85
:10016000400072494949462141494D331814127FD4
:100170001027454545393C4A494931412111090774
:100180003649494936464949291E000014000000F5
:1001900040340000000814224114141414140041C7
:1001A00022140802015909063E415D594E7C121184
:1001B000127C7F494949363E414141227F414141BC
:1001C0003E7F494949417F090909013E4141517337
:1001D0007F0808087F00417F41002040413F017FA8
:1001E000081422417F404040407F021C027F7F0470
:1001F00008107F3E4141413E7F090909063E4151B9
:10020000215E7F09192946264949493203017F01A8
:10021000033F4040403F1F2040201F3F4038403FA9
:10022000631408146303047804036159494D4300BF
:100230007F4141410204081020004141417F0402F6
:10024000010204404040404000030708002054548D
:1002500078407F284444383844444428384444286B
:100260007F385454541800087E090218A4A49C78BE
:100270007F0804047800447D40002040403D007F1A
:100280001028440000417F40007C047804787C08FA
:100290000404783844444438FC18242418182424CE
:1002A00018FC7C08040408485454542404043F44B3
:1002B000243C4040207C1C2040201C3C4030403CE2
:1002C00044281028444C9090907C4464544C440042
:1002D00008364100000077000000413608000201A6
:1002E0000204023C2623263C1EA1A161123A404092
:1002F000207A38545455592155557941225454780F
:1003000042215554784020545579400C1E527212A7
:100310003955555559395454545939555454580030
:1003200000457C410002457D420001457C407D1234
:1003300011127DF0282528F07C5455450020545496
:100340007C547C0A097F4932494949323A44444441
:100350003A324A4848303A4141217A3A424020787C
:10036000009DA0A07D3D4242423D3D4040403D3C7D
:1003700024FF2424487E4943662B2FFC2F2BFF09A2
:1003800029F620C0887E0903205454794100004496
:100390007D413048484A32384040227A007A0A0A81
:1003A000727D0D19317D2629292F282629292926F4
:1003B00030484D4020380808080808080808382F39
:1003C00010C8ACBA2F102834FA00007B00000814C3
:1003D0002A142222142A14085500550055AA55AA99
:1003E00055AAFF55FF55FF000000FF00101010FF39
:1003F00000141414FF001010FF00FF1010F010F094
:10040000141414FC001414F700FF0000FF00FF1484
:1004100014F404FC141417101F10101F101F1414D0
:10042000141F00101010F0000000001F101010101A
:100430001F10101010F010000000FF10101010100E
:1004400010101010FF10000000FF140000FF00FF4C
:1004500000001F10170000FC04F4141417101714E8
:1004600014F404F40000FF00F7141414141414140A
:10047000F700F7141414171410101F101F1414147D
:10048000F4141010F010F000001F101F0000001FE7
:1004900014000000FC140000F010F01010FF10FF1A
:1004A000141414FF141010101F00000000F010FFAF
:1004B000FFFFFFFFF0F0F0F0F0FFFFFF0000000093
:1004C00000FFFF0F0F0F0F0F3844443844FC4A4A17
:1004D0004A347E02020606027E027E0263554941CC
:1004E000633844443C04407E201E2006027E020203
:1004F00099A5E7A5991C2A492A1C4C7201724C3017
:100500004A4D4D303048784830BC625A463D3E49ED
:100510004949007E0101017E2A2A2A2A2A44445F91
:10052000444440514A444040444A51400000FF0185
:1005300003E080FF000008086B6B08361236243693
:10054000060F090F060000181800000010100030F8
:1005500040FF0101001F01011E00191D1712003C80
:100560003C3C3C00000000000000000800020100CC
:10057000000304070000000000000000000000006D
:10058000250028002B0000000000240027002A007E
:100590000404040404040404020202020202030329
:1005A0000303030301020408102040800102040831
:1005B0001020010204081020871211241FBECFEF63
:1005C000D8E0DEBFCDBF15E0A0E0B1E0E4E2FEE29E
:1005D00002C005900D92A636B107D9F726E0A6E62F
:1005E000B5E001C01D92AD3DB207E1F712E0CDEDDF
:1005F000D2E004C02197FE010E940517CC3DD1072F
:10060000C9F70E94F8120C9410170C940000FC011A
:10061000538D448D252F30E0842F90E0821B930B67
:10062000541710F0CF96089501970895FC01918D0D
:10063000828D981761F0828DDF01A80FB11D5D9644
:100640008C91928D9F5F9F73928F90E008958FEFB2
:100650009FEF0895FC01918D828D981731F0828D66
:10066000E80FF11D858D90E008958FEF9FEF0895BD
:10067000FC01918D228D892F90E0805C9F4F821B21
:1006800091098F739927089580E090E0892B29F0D4
:100690000E94901181110C94000008953FB7F894C6
:1006A0008091B2059091B305A091B405B091B505C4
:1006B00026B5A89B05C02F3F19F00196A11DB11DBD
:1006C0003FBFBA2FA92F982F8827820F911DA11DF8
:1006D000B11DBC01CD0142E0660F771F881F991F35
:1006E0004A95D1F708950F931F93CF93DF93DC01C1
:1006F00055968C915597823071F0833009F1813095
:1007000009F08CC01496ED91FC911597E41BF50B44
:10071000E21BF30B20C01496ED91FC911597CF01CD
:10072000861B970BBC01615071091696ED91FC91E7
:100730001797CF01841B950BAC01421B530B6EC066
:100740001696ED91FC911797CF01861B970BBC0174
:1007500061507109FA0177FD1BC116968D919C912C
:100760001797681779070CF013C1F7FF04C02E0F15
:100770003F1FE0E0F0E014968D919C911597AF013A
:10078000420F531F841795071CF49C012E1B3F0B2F
:10079000121613060CF0FCC0CB0177FD079643E060
:1007A000959587954A95E1F79695982F882797957F
:1007B0008795E80FF91FE050FF4F6770772781E0BA
:1007C00090E001C0880F6A95EAF7482F01301105C3
:1007D00041F088F00230110509F0DAC02E0F3F1FFA
:1007E00015C02E0F3F1FE217F30709F4D1C0808117
:1007F000842B8193F8CF80952E0F3F1FE217F307CC
:1008000009F4C6C0908198239193F8CFE217F307BB
:1008100009F4BEC0808184278193F8CF77FDB8C0EA
:1008200014968D919C911597681779070CF0B0C0BC
:1008300057FF04C0240F351F40E050E016968D91FD
:100840009C911797FA01E20FF31F8E179F071CF474
:100850009C01241B350B121613060CF099C0A22F15
:10086000842F86958695869590E8899F600D711DE9
:100870001124FB01E050FF4F4770A9F198E0941B51
:10088000492F50E0EA01C45FDA4F8881291790F4BC
:10089000421B51092FEF30E002C0359527954A954C
:1008A000E2F782230130110541F068F002301105B2
:1008B00089F06EC00130110519F42081822B0CC023
:1008C0000130110520F480952081822305C002307B
:1008D000110531F4208182278083A91708F458C0BC
:1008E000A91BE058FF4FA83048F10230110559F418
:1008F000EF018A2F988190959883C058DF4F8850D8
:100900008830C0F730C081E00130110509F080E087
:100910008195EF019A2F8883C058DF4F9850983007
:10092000D0F788EF8A0F86958695869590E8899FFF
:10093000E00DF11D1124E058FF4FA770AA2341F1EB
:10094000B0E0AC5FBA4F8C910130110529F038F05E
:1009500002301105D1F01CC09081892B18C0809500
:100960009081892314C088EF8A0F86958695869595
:1009700090E8899FE00DF11D1124E058FF4FA7700A
:1009800039F0B0E0AC5FBA4F8C91908189278083B9
:10099000DF91CF911F910F9108950F931F93CF93E4
:1009A000DF93DC01FB0155968C915597823081F0E5
:1009B000833019F1813051F514968D919C911597E2
:1009C000BC01641B750BAB0141505109BF0181C0D3
:1009D00014966D917C911597CB018E1B9F0BFC019A
:1009E00016968D919C911797BC01641B750BAB01FA
:1009F00041505109E21BF30B09C016966D917C9191
:100A000017976E1B7F0B621B730B63C057FD1CC1D6
:100A100016968D919C911797481759070CF014C1A1
:100A2000F7FF04C02E0F3F1FE0E0F0E014968D9119
:100A30009C911597BF01620F731F861797071CF4CF
:100A40009C012E1B3F0B121613060CF0FDC0CA01B1
:100A500057FD079663E0959587956A95E1F796951A
:100A6000982F882797958795E80FF91FE050FF4F3B
:100A70004770552781E090E001C0880F4A95EAF75A
:100A8000482F0130110541F088F00230110509F0BE
:100A9000DBC02E0F3F1F15C02E0F3F1FE217F307BD
:100AA00009F4D2C08081842B8193F8CF80952E0FDA
:100AB0003F1FE217F30709F4C7C090819823919371
:100AC000F8CFE217F30709F4BFC080818427819330
:100AD000F8CF57FDB9C014968D919C911597481782
:100AE00059070CF0B1C077FF04C0260F371F60E034
:100AF00070E016968D919C911797FB01E20FF31F02
:100B00008E179F071CF49C01261B370B1216130629
:100B10000CF09AC0A22F862F86958695869590E830
:100B2000899F400D511D1124FA01E050FF4F67705D
:100B3000A9F198E0961B492F50E0EA01C45FDA4F13
:100B40008881291790F4421B51092FEF30E002C031
:100B5000359527954A95E2F782230130110541F03A
:100B600068F00230110589F06FC00130110519F4E9
:100B70002081822B0CC00130110520F4809520814A
:100B8000822305C00230110531F420818227808341
:100B9000A91708F459C0A91BE058FF4FA83048F125
:100BA0000230110559F4EF018A2F988190959883AE
:100BB000C058DF4F88508830C0F731C081E0013025
:100BC000110509F080E08195EF019A2F8883C058C4
:100BD000DF4F98509830D0F788EF8A0F869586952A
:100BE000869560E8869FE00DF11D1124E058FF4FC7
:100BF000A770AA2349F1B0E0AC5FBA4F8C910130E5
:100C0000110529F038F002301105D9F01DC090818E
:100C1000892B03C0809590818923808315C088EF3C
:100C20008A0F86958695869570E8879FE00DF11D61
:100C30001124E058FF4FA77039F0B0E0AC5FBA4F15
:100C40008C9190818927E9CFDF91CF911F910F91EE
:100C50000895FC0177FD9AC0808591856817790712
:100C60000CF094C057FD92C08285938548175907B0
:100C70000CF08CC08589823009F07CC0848195811C
:100C8000DC01A61BB70BBD016150710986819781FC
:100C9000FC01E41BF50BAF01415051090AC0813042
:100CA00041F484819581841B950BAB01BC0161509B
:100CB00071092130310529F008F122303105E1F1C7
:100CC0000895FA0157FD3796A3E0F595E795AA95A3
:100CD000E1F7F695FE2FEE27F795E7956E0F7F1F4C
:100CE000FB01E050FF4F4770552781E090E001C0C5
:100CF000880F4A95EAF79081892B3AC0FA0157FD8F
:100D0000379623E0F595E7952A95E1F7F695FE2FBE
:100D1000EE27F795E7956E0F7F1FFB01E050FF4F21
:100D20004770552781E090E001C0880F4A95EAF7A7
:100D30008095908189231CC0FA0157FD379683E086
:100D4000F595E7958A95E1F7F695FE2FEE27F7954D
:100D5000E7956E0F7F1FFB01E050FF4F477055274F
:100D600081E090E001C0880F4A95EAF790818927D9
:100D700080830895833009F092CF86819781861B06
:100D8000970BBA01AC014150510993CF08950895D2
:100D9000FC016370658B8481958126813781613088
:100DA00039F0633029F0918780873387228708954F
:100DB000318720879387828708952F923F924F92A1
:100DC0005F926F927F928F929F92AF92BF92CF92DB
:100DD000DF92EF92FF920F931F93CF93DF93CDB7E4
:100DE000DEB76C970FB6F894DEBF0FBECDBF9C8FF9
:100DF0008B8F5B011A011F830E833701C982DC01CF
:100E000058964D915C9159974115510509F0E5C0EF
:100E100018968D919C911997681779070CF0CAC1A3
:100E20001A968D919C911B97281639060CF0C2C119
:100E30008C2C912CFB0136E0C39EE00DF11D11249A
:100E4000FB87EA871E161F060CF0B4C1C40133E00D
:100E5000880F991F3A95E1F79D878C87820D931D26
:100E6000181619060CF0A6C157968C91811103C073
:100E7000203B08F02F5FAB8DBC8DED91FC9111975D
:100E80000284F385E02DCD012A8F09952A8DB5E0E6
:100E90002B9F90011124F5013596FF87EE87BB82C9
:100EA000AA822501A9014A195B09598B488BC10106
:100EB00008969B8B8A8BE889F989E40DF51DE85922
:100EC000FF4F9491988761013D822C82A885A0FFF5
:100ED00013C0AB8DBC8DED91FC91B981B13031F473
:100EE0000484F585E02D2E813F8116C00684F785A8
:100EF000E02DEE80FF801AC0EE81FF816E167F0626
:100F0000F1F0AB8DBC8DED91FC91B981B13051F414
:100F10000484F585E02D9301A601B2018B8D9C8D93
:100F200009950DC00684F785E02D730184019401B5
:100F30004C815D816A817B818B8D9C8D0995E885D3
:100F4000E695E887FFEFCF1ADF0A2C813D81280D57
:100F5000391D3D832C834A895B89C416D50609F067
:100F6000B5CF5FEF451A550A8A819B81880D991D7F
:100F70009B838A83AE85BF854A165B0609F09BCFAB
:100F8000EE81FF816E167F0609F4F2C0EB8DFC8DB9
:100F9000A081B181F981F13079F4B5016B5F7F4FA8
:100FA0005096ED91FC915197830128E030E0A1012A
:100FB0008B8D9C8D0995DCC06A857B8568197909C4
:100FC0001E96ED91FC911F9773010C851D85940170
:100FD000A1018B8D9C8D0995CBC0FA01349694911B
:100FE000329765917491291BCB01B7E02B9F800D3F
:100FF000911D1124FA01259134913B8B2A8BFC0120
:10100000459154915B834A83FC013296C49031969A
:1010100054915E87329614913196D49089818230B2
:1010200058F0612E012E000C7708AD2D0D2C000C10
:10103000BB0BB987A88704C019861886612C712C50
:10104000AB8DBC8DED91FC9111970284F385E02D61
:10105000CD010995B9818B2E912C689CC001699CAA
:10106000900D789C900D1124FC01EA0DFB1DFD876D
:10107000EC871C82712C612CE12F110FFF0B950165
:101080002E0F3F1F3B872A87AC0CB11CA5014E0FCA
:101090005F1F5F8B4E8BC1018D0D911DD7FC9A9503
:1010A000998F888F4E85641608F062C0862D90E077
:1010B00048855985480F591F489D9001499D300D1D
:1010C000589D300D1124D901A20DB31DB98BA88BE9
:1010D000AA84BB844C845D84DC80BA85DB1AE88DED
:1010E000F98DE80FF91FFD8BEC8B8D2D8A0D2E8964
:1010F0003F89A216B306B9F1877061F48A819B819A
:101100000196EA89FB89AA81BB81EA0FFB1F7490D3
:101110009B838A8377FE20C0AB8DBC8DED91FC91C3
:10112000B981B13061F40484F585E02D2E813F81D1
:101130004C895D89B5018B8D9C8D09950DC0068408
:10114000F785E02DEE80FF8084019401488959895C
:10115000B2018B8D9C8D0995770CEFEFAE1ABE0A0C
:10116000480C591CC2CF3C813C0D3C8363949ACF00
:10117000AB8DBC8DED91FC9111970688F789E02D20
:10118000CD016C960FB6F894DEBF0FBECDBFDF91D8
:10119000CF911F910F91FF90EF90DF90CF90BF9074
:1011A000AF909F908F907F906F905F904F903F9007
:1011B0002F9009946C960FB6F894DEBF0FBECDBF8A
:1011C000DF91CF911F910F91FF90EF90DF90CF9023
:1011D000BF90AF909F908F907F906F905F904F9057
:1011E0003F902F900895AF92BF92CF92EF92FF92CF
:1011F0000F931F93CF93DF93EC01262F888D998D4A
:10120000009709F040C06A3059F41D861C862C896D
:101210008E859F8538E0239F800D911D112441C04C
:101220006D3009F4AAC08E898823C1F03C898C8571
:101230009D8546E0349F800D911D11244885598578
:10124000481759075CF41D861C868E859F8548E0EB
:10125000349F800D911D11249F878E87EA88FB881B
:10126000088919894E855F856C857D85CC88CE017E
:101270000E94DD062C898C859D8536E0239F800D9C
:10128000911D112442C06A3079F41D861C862C8978
:10129000FC013696E4918E859F852E9F800D911DD1
:1012A00011249F878E8769C06D3009F466C0FC01E8
:1012B00034963491631708F460C03196E491E617D0
:1012C00008F45BC0FC013296A590B490462F50E024
:1012D000431B510937E0349FB001359F700D112435
:1012E000A60EB71EF501329634913196E491332360
:1012F00011F0E1110DC0F5013496E4912C898C8533
:101300009D85E29F800D911D11249D878C8735C09E
:10131000F501359644915E89552311F16C89E32FCF
:10132000F0E0E40FF11D47FDFA956E9FD0016F9F2D
:10133000B00D11244C855D854A0F5B1FE885F9854A
:10134000E417F5076CF41D861C86FC013696E491C3
:101350008E859F856E9F800D911D11249F878E879E
:10136000EA88FB88088919894E855F856C857D85AB
:10137000CC88CE010E94DD06BECF81E090E0DF91F7
:10138000CF911F910F91FF90EF90CF90BF90AF90B2
:1013900008956F927F928F929F92AF92BF92CF9259
:1013A000DF92EF92FF920F931F93CF93DF93EC01A5
:1013B0004B015A0169013801E881F9810284F38502
:1013C000E02D0995E881F9810288F389E02D8701F4
:1013D0009601A501B401CE010995E881F981A50125
:1013E000460D571D415051090288F389E02D9601A1
:1013F000B401CE010995E881F9810088F189E02DD9
:101400009301A501B401CE010995E881F981C80CC9
:10141000D91CB601615071090088F189E02D930152
:10142000A501CE010995E881F9810688F789E02DAB
:10143000CE01DF91CF911F910F91FF90EF90DF9040
:10144000CF90BF90AF909F908F907F906F900994B6
:10145000CF92DF92EF92FF920F931F93CF93DF9380
:1014600000D000D000D0CDB7DEB76C01DC01ED912B
:10147000FC916217730789F4041715072CF4942F55
:10148000852FA801092F182F041B150B98012F5F1A
:101490003F4F048CF58DE02D12C04017510709F520
:1014A000261737072CF4962F872FB901292F382FAD
:1014B000261B370B2F5F3F4F068CF78DE02D8701E2
:1014C000C601099526960FB6F894DEBF0FBECDBFB4
:1014D000DF91CF911F910F91FF90EF90DF90CF9010
:1014E00008950284F385E02D2D833E834B835C8336
:1014F00069837A830995D601ED91FC910488F58979
:10150000E02D2D813E814B815C8169817A81C6010C
:101510000995D601ED91FC910688F789E02DC60169
:1015200026960FB6F894DEBF0FBECDBFDF91CF91E8
:101530001F910F91FF90EF90DF90CF900994EF9261
:10154000FF920F931F93DC01ED91FC9111971A9676
:101550000D911C911B9718962D913C91199700A005
:10156000F1A1E02D7B0140E050E060E070E00995E2
:101570001F910F91FF90EF9008954F925F926F929D
:101580007F928F929F92AF92BF92CF92DF92EF9213
:10159000FF920F931F93CF93DF9300D0CDB7DEB7A9
:1015A0006C015A0139014801DC01ED91FC91028482
:1015B000F385E02D69837A8309956981462E7A81C6
:1015C000572E640C751CD601ED91FC9146145704FE
:1015D0006CF40088F189E02D87019401A501B20126
:1015E000C6010995BFEF4B1A5B0AEDCF0688F78954
:1015F000E02DC6010F900F90DF91CF911F910F91B9
:10160000FF90EF90DF90CF90BF90AF909F908F9022
:101610007F906F905F904F900994AF92BF92CF925E
:10162000DF92EF92FF920F931F93CF93DF9300D03F
:1016300000D0CDB7DEB75C016901DC01ED91FC9112
:101640000284F385E02D4B835C8369837A8309955B
:10165000D501ED91FC9169817A819B012C0D3D1D95
:10166000215031090488F589E02D78014B815C8196
:101670008A01C5010995D501ED91FC910688F7898C
:10168000E02DC5010F900F900F900F90DF91CF913B
:101690001F910F91FF90EF90DF90CF90BF90AF9090
:1016A0000994AF92BF92CF92DF92EF92FF920F9385
:1016B0001F93CF93DF9300D000D0CDB7DEB75C018E
:1016C0006901DC01ED91FC910284F385E02D4B83EF
:1016D0005C8369837A830995D501ED91FC914B81F7
:1016E0005C81C40ED51EB1E0CB1AD1080488F589FF
:1016F000E02D7801860169817A819B01C5010995F8
:10170000D501ED91FC910688F789E02DC5010F9078
:101710000F900F900F90DF91CF911F910F91FF903D
:10172000EF90DF90CF90BF90AF9009940895EF9223
:10173000FF920F931F93DC01ED91FC9100A0F1A1AA
:10174000E02D09951F910F91FF90EF9008950F9351
:101750001F93DC01ED91FC91068CF78DE02D09952E
:101760001F910F9108950F931F93DC01ED91FC9150
:10177000048CF58DE02D09951F910F910895DC01E2
:10178000ED91FC910084F185E02D099408952F924C
:101790003F924F925F926F927F928F929F92AF9201
:1017A000BF92CF92DF92EF92FF920F931F93CF934E
:1017B000DF9300D01F92CDB7DEB74C017B836A83E5
:1017C0006A01590117019801241B350B37FF03C02B
:1017D000319521953109C5014A815B81841B950BA7
:1017E00097FF03C091958195910951E05983821724
:1017F000930714F019820BC09A2D8B2D5801092FD5
:10180000182F9A818B81DB82CA82C92ED82E8A81B9
:101810009B81A816B9065CF49C2D8D2D6801092FBB
:10182000182F9A818B81BB82AA82A92EB82E2501FE
:10183000AA81BB814A1A5B0A38016C187D0877FEC1
:1018400003C0719461947108720157FE03C0BFEF29
:10185000EB1AFB0AF594E794C016D1061CF00FEFC3
:101860001FEF1FC001E010E01CC0D401ED91FC91FE
:10187000B9810484F585E02D9101BB23C1F04A8133
:101880005B81B601C4010995E618F708F7FE04C0AC
:10189000C00ED11EE40CF51CEA81FB813196FB835E
:1018A000EA834A815B81A416B506FCF604C0A60152
:1018B0006A817B81E7CF0F900F900F90DF91CF91DE
:1018C0001F910F91FF90EF90DF90CF90BF90AF905E
:1018D0009F908F907F906F905F904F903F902F9050
:1018E000089585ED8093BC008091BC0084FDFCCF01
:1018F0001092DE05089540918805262F30E0240FD0
:10190000311D21323105DCF42091DE052430C9F48B
:10191000FC0180E090E0861758F430918805219111
:10192000DC01AA59BA4FA30FB11D2C930196F3CF36
:1019300080918805680F6093880580E0089581E0B4
:10194000089582E00895089581E090E03091B70510
:101950002091B605321710F480E090E091958195C2
:10196000910908958091B7059091B605891730F4D3
:101970008F5F8093B70580E090E008958FEF9FEF31
:1019800008958091B60590E02091B705821B9109DA
:101990000895CF92DF92EF92FF920F931F93CF9310
:1019A000DF937C01262F972F8A018091DF05882302
:1019B00091F0C62FD72F6E01C40ED51ECC15DD05B4
:1019C00071F06991D701ED91FC910190F081E02DCA
:1019D000C7010995F3CF642F822F0E947B0CC801A9
:1019E000DF91CF911F910F91FF90EF90DF90CF90FB
:1019F0000895CF93DF931F92CDB7DEB7698320910F
:101A0000DF052223D1F020910106203240F021E0B1
:101A100030E0FC013383228380E090E015C08091A8
:101A2000E005E82FF0E0EF51FA4F998190838F5F46
:101A30008093E0058093010605C061E0CE01019628
:101A40000E947B0C81E090E00F90DF91CF91089590
:101A5000089580E090E008950E940B171F920F9266
:101A60000FB60F9211242F938F939F93EF93FF93B1
:101A7000E0911206F09113068081E0911806F09132
:101A8000190682FD12C0908180911B068F5F8F73B3
:101A900020911C06821751F0E0911B06F0E0EE5FEA
:101AA000F94F958F80931B0601C08081FF91EF91C4
:101AB0009F918F912F910F900FBE0F901F901895AF
:101AC000FC01848DDF01A80FB11DA35ABF4F2C91DB
:101AD000848D90E001968F739927848FA689B789AA
:101AE0002C93A089B1898C9180648C93938D848D83
:101AF000981306C00288F389E02D80818F7D808352
:101B00000895EF92FF920F931F93CF93DF93EC0111
:101B100081E0888F9B8D8C8D981305C0E889F989A9
:101B2000808185FD24C0F62E0B8D10E00F5F1F4FC6
:101B30000F731127E02E8C8DE8120CC00FB607FC36
:101B4000FACFE889F989808185FFF5CFCE010E941F
:101B5000600DF1CF8B8DFE01E80FF11DE35AFF4FB1
:101B6000F0820B8FEA89FB898081806207C0EE8951
:101B7000FF896083E889F98980818064808381E0BE
:101B800090E0DF91CF911F910F91FF90EF9008951A
:101B9000CF93DF93EC01888D8823C9F0EA89FB8914
:101BA000808185FD05C0A889B9898C9186FD0FC00B
:101BB0000FB607FCF5CF808185FFF2CFA889B989E0
:101BC0008C9185FFEDCFCE010E94600DE7CFDF91B4
:101BD000CF91089590E0FC01E859FA4F3491FC014F
:101BE000EC55FA4F2491FC01E057FA4FE491EE23B3
:101BF00009F43BC0332339F1333091F038F43130FC
:101C0000A9F0323001F584B58F7D12C0373091F0E4
:101C10003830A1F03430B9F4809180008F7D03C05A
:101C2000809180008F77809380000DC084B58F777E
:101C300084BD09C08091B0008F7703C08091B0004F
:101C40008F7D8093B000F0E0EE0FFF1FE458FA4F55
:101C5000A591B4918FB7F894EC91611103C02095D0
:101C60002E2301C02E2B2C938FBF08958F929F920D
:101C7000AF92BF92CF92DF92EF92FF926B017C0105
:101C80000E944E034B015C01C114D104E104F10434
:101C9000F1F00E944E03DC01CB0188199909AA09D1
:101CA000BB09883E9340A105B10570F321E0C21A3B
:101CB000D108E108F10888EE880E83E0981EA11C87
:101CC000B11CC114D104E104F10419F7DDCFFF9078
:101CD000EF90DF90CF90BF90AF909F908F9008953E
:101CE0001F920F920FB60F9211242F933F938F9351
:101CF0009F93AF93BF938091AE059091AF05A09154
:101D0000B005B091B1053091AD0523E0230F2D371B
:101D100020F40196A11DB11D05C026E8230F0296EF
:101D2000A11DB11D2093AD058093AE059093AF0525
:101D3000A093B005B093B1058091B2059091B30521
:101D4000A091B405B091B5050196A11DB11D809378
:101D5000B2059093B305A093B405B093B505BF91B8
:101D6000AF919F918F913F912F910F900FBE0F9048
:101D70001F9018951F920F920FB60F9211242F9358
:101D80003F934F935F936F937F938F939F93AF9303
:101D9000BF93EF93FF938091B900887F803609F459
:101DA0009CC068F5883209F45BC090F4803109F476
:101DB00054C038F4882309F4F6C0883009F44DC0C3
:101DC000F6C0883109F44CC0803209F45DC0EFC020
:101DD000803409F468C048F4803309F455C088336E
:101DE00009F0E5C08093DC05D8C0803509F44FC008
:101DF000883509F45DC0883409F0D9C0D6C0883967
:101E000009F4C7C0A8F4883709F467C038F48836E5
:101E100009F463C0803709F460C0C9C0883809F488
:101E2000B8C0803909F45FC0803809F0C0C05BC019
:101E3000803B09F486C038F4803A09F466C0883AD9
:101E400009F47FC0B4C0803C09F4A7C0883C09F401
:101E5000A4C0883B09F48AC0AAC08091B90510C00B
:101E60009091DB058091DA05981770F5E091DB051C
:101E700081E08E0F8093DB05F0E0E654FA4F80811D
:101E80008093BB0085EC86C08093DC058EC0E0911A
:101E9000DB0581E08E0F8093DB058091BB00F0E0D5
:101EA000E654FA4F80839091DB058091DA056EC08D
:101EB000E091DB0581E08E0F8093DB058091BB0014
:101EC000F0E0E654FA4F80838091DD0581116DC00A
:101ED00081E08093B80584EA61C083E08093DE05E9
:101EE0001092AC05CFCF8091AC05803208F051C084
:101EF000E091AC0581E08E0F8093AC058091BB0032
:101F0000F0E0E457FA4F8083BDCF85EC8093BC00AE
:101F10001092DE058091AC05803230F4E091AC0582
:101F2000F0E0E457FA4F10826091AC0570E0E09168
:101F30008A05F0918B058CE895E009951092AC0527
:101F400036C084E08093DE051092890510928805E2
:101F5000E0918605F09187050995809188058111AA
:101F600005C081E08093880510926605E09189059F
:101F700081E08E0F80938905F0E0EA59FA4F808165
:101F80008093BB009091890580918805981708F48B
:101F900079CF85E88093BC000AC085EC8093BC00B3
:101FA0001092DE0504C01092DC050E94710CFF91B6
:101FB000EF91BF91AF919F918F917F916F915F91C1
:101FC0004F913F912F910F900FBE0F901F9018953A
:101FD000209101069091A006213208F04AC080911C
:101FE000DE058111FCCF32E03093DE0531E0309325
:101FF000DD053FEF3093DC051092DB052093DA0519
:10200000A1EEB5E04AEB55E0FA013E2F341B321742
:1020100018F43D913193F9CF1092B9052091B9058B
:10202000990F922B9093B9059091B805913061F476
:102030001092B8059091B9059093BB009091BC00A7
:1020400093FDF8CF95EC01C095EE9093BC00909174
:10205000DE059230E1F39091DC059F3F79F08091AD
:10206000DC05803241F08091DC05803331F084E082
:1020700005C081E003C082E001C083E01092E0056A
:10208000109201061092DF0508959091D0069923D1
:1020900039F08EBD00000DB407FEFDCF8EB508955A
:1020A00028E030E040E8E091D306F091D40650817A
:1020B0009091DA06909595239083E091D106F09166
:1020C000D2069091D906542F582319F05081952BA0
:1020D00003C05081909595239083E091D306F091B1
:1020E000D40650819091DA06952B90834695215025
:1020F0003109C9F6089590E0FC01EC55FA4F24919E
:10210000FC01E057FA4F8491882399F090E0880F02
:10211000991FFC01EA57FA4FA591B491FC01E458CC
:10212000FA4F859194918FB7F894EC91E22BEC9350
:102130008FBF0895CF92DF92EF92FF920F931F937C
:10214000CF93DF936C017A018B01C0E0D0E0CE1514
:10215000DF0589F0D8016D918D01D601ED91FC91DB
:102160000190F081E02DC6010995892B11F47E01C3
:1021700002C02196ECCFC701DF91CF911F910F9143
:10218000FF90EF90DF90CF900895CF93C82F80916C
:10219000CB068F3F59F1E091D506F091D6068081AC
:1021A0009091DB06982B9083E091D706F091D806AA
:1021B00020819091DC06909592239083E091D50642
:1021C000F091D60620819091DB0690959223908322
:1021D0008C2F0E944510E091D506F091D606908193
:1021E0008091DB06892B8083CF9108958091C90669
:1021F00091E09093DF058093A0061092E005109285
:10220000010660E081EA96E00E94F90C6C2F81EAF9
:1022100096E00E94F90CCF910C94E80FEF92FF9298
:102220000F931F93CF93DF9381E20E94C51080E04C
:102230000E94C5108FE70E94C51082E20E94C5105F
:1022400080E00E94C51087E00E94C5108091CB06F7
:102250008F3F79F1E091D506F091D606908180917B
:10226000DB06892B8083E091D706F091D806908118
:102270008091DC06892B8083E091D506F091D6060B
:1022800090818091DB06809589238083C0E0D1E036
:1022900089910E94451085E0C030D807C9F7E091C8
:1022A000D506F091D60690818091DB06892B80833C
:1022B00030C0F090B8008CE08093B800C0E0D1E06E
:1022C000EE24E3948091C906E092DF058093A00696
:1022D0001092E0051092010660E481EA96E00E9407
:1022E000F90C00E010E0FE01E00FF11F608181EACF
:1022F00096E00E94F90C0F5F1F4F0031110599F70E
:102300000E94E80F609685E0C030D807D9F6F092B9
:10231000B800DF91CF911F910F91FF90EF9008953A
:1023200082E096E00E94380321E0892B09F420E046
:10233000822F08958F929F92AF92BF920F931F9317
:10234000CF93DF93CDB7DEB7A1970FB6F894DEBF7A
:102350000FBECDBF19A2423008F44AE08E010F5DD6
:102360001F4F842E912CA12CB12CA50194010E9409
:10237000A315E62FB901CA0101501109EA3014F47E
:10238000E05D01C0E95CD801EC93232B242B252BC5
:1023900061F70115110571F0F80101900020E9F7CE
:1023A0003197AF01401B510BB8018FEA96E00E94B4
:1023B0009A1002C080E090E0A1960FB6F894DEBFBC
:1023C0000FBECDBFDF91CF911F910F91BF90AF9006
:1023D0009F908F9008958F929F92AF92BF92EF92AD
:1023E000FF920F931F93CF93DF938536910514F0DF
:1023F00084E690E0EC0197FF02C0C0E0D0E0EE245C
:10240000E394F12C0FE010E020E830E04DE250E0E2
:1024100060E070E08FEA96E00E94C9094E010D2E3F
:10242000000CAA08BB08C501B4010E940C1622E5E5
:1024300038EB4EE95FE30E9470160E94D4150BE062
:1024400010E09B014FE250E062E070E08FEA96E01E
:102450000E94BD0A8DE390E09093BC068093BB067A
:1024600082E390E09093BE068093BD0681E0809366
:10247000C30681E090E09093C2068093C106E29784
:102480002CF49093C0068093BF0604C01092C0063F
:102490001092BF064AE0C501B4010E949A1141E0C2
:1024A00050E064E675E08FEA96E0DF91CF911F91EE
:1024B0000F91FF90EF90BF90AF909F908F900C94F2
:1024C0009A101F920F920FB60F9211242F933F93E1
:1024D0004F935F936F937F938F939F93AF93BF932C
:1024E000EF93FF9382E096E00E94600DFF91EF91E1
:1024F000BF91AF919F918F917F916F915F914F911C
:102500003F912F910F900FBE0F901F901895E2E012
:10251000F6E01382128288EE93E0A0E0B0E08483BC
:102520009583A683B78328E135E03183208325ECAA
:1025300030E03587248724EC30E03787268720EC8D
:1025400030E0318B208B21EC30E0338B228B22EC7E
:1025500030E0358B248B26EC30E0378B268B118EC8
:10256000128E138E148EE1EAF6E0138212828483B7
:102570009583A683B7838AE295E091838083EFEA0F
:10258000F6E01382128220E830E03583248380E471
:1025900090E0978386833187208793878287158A87
:1025A000158614861786168681E0848B2FEF3FEF01
:1025B000338B228B318B208B868B178A118E108E5A
:1025C0008CE395E0918380838FEF848F80A3868F47
:1025D000858F84E0878F0E94631524E630E040E019
:1025E00050E00E9471157093AE066093AD06089599
:1025F000789484B5826084BD84B5816084BD85B5DE
:10260000826085BD85B5816085BD80916E008160E9
:1026100080936E001092810080918100826080938F
:102620008100809181008160809381008091800091
:102630008160809380008091B10084608093B100BC
:102640008091B00081608093B00080917A008460B6
:1026500080937A0080917A00826080937A008091E2
:102660007A00816080937A0080917A0080688093FC
:102670007A001092C10082E08093CA068CE38093B6
:10268000C9068091CB068F3F09F4B6C08091CD0674
:102690000E947B108091CF060E947B108091CF0614
:1026A000082E000C990BFC01E057FA4FE491F0E082
:1026B000EE0FFF1FE458FA4F259134913093D60660
:1026C0002093D506FC01EC55FA4FE491E093DB062C
:1026D0008091CD06082E000C990BFC01E057FA4FB3
:1026E000E491F0E0EE0FFF1FE458FA4F259134918A
:1026F0003093D8062093D706FC01EC55FA4FE491AD
:10270000E093DC068091D00681113CC08091CB061D
:102710000E947B108091CC060E947B108091CC0699
:10272000082E000C990BFC01E057FA4FE491F0E001
:10273000EE0FFF1FE458FA4F259134913093D406E1
:102740002093D306FC01EC55FA4FE491E093DA06AE
:102750008091CB06082E000C990BFC01E057FA4F34
:10276000E491F0E0EE0FFF1FE458FA4F2591349109
:102770003093D2062093D106FC01EC55FA4FE49138
:10278000E093D9068091D006882309F45CC0CFB7C6
:10279000F89480919F06811124C0EAE9F5E08491C4
:1027A000EEEAF5E09491E82FF0E0EE0FFF1FEA5714
:1027B000FA4FA591B491EC91E92321F461E08AE00C
:1027C0000E94EA0D8AE00E947B108CB580618CBD6E
:1027D0008CB580648CBD8DE00E947B108BE00E94E4
:1027E0007B1080919F068F5F80939F06CFBF80E50F
:1027F0008CBD81E08DBD27C01092B7051092B60543
:102800001092E005109201061092DE0581E080939F
:10281000DD051092B80561E082E10E94EA0D61E0F9
:1028200083E10E94EA0D8091B9008E7F8093B90008
:102830008091B9008D7F8093B90088E48093B800BF
:1028400085E48093BC008091CE0687FD1DC00E9468
:102850007B1061E08091CE060E94EA0D61E070E09D
:1028600080E090E00E94360E60E08091CE060E94EB
:10287000EA0D6AE070E080E090E00E94360E61E0D0
:102880008091CE060E94EA0D8EEA0E94C51085ED69
:102890000E94C51080E80E94C51088EA0E94C510F9
:1028A0008FE30E94C51083ED0E94C51080E00E9456
:1028B000C51080E40E94C5108DE80E94C51084E117
:1028C0000E94C51080E20E94C51080E00E94C510E1
:1028D00081EA0E94C51088EC0E94C5108AED0E9412
:1028E000C51082E10E94C51081E80E94C5108FECDE
:1028F0000E94C51089ED0E94C51081EF0E94C5108D
:102900008BED0E94C51080E40E94C51084EA0E94ED
:10291000C51086EA0E94C5108EE20E94C5108FEA9B
:102920000E94C510E0911206F091130682E08083A8
:10293000E0910E06F0910F061082E0911006F091E2
:1029400011068FEC808310921A06E0911606F09122
:10295000170686E08083E0911406F09115068081C9
:1029600080618083E0911406F09115068081886073
:102970008083E0911406F091150680818068808341
:10298000E0911406F091150680818F7D8083C0E070
:10299000D0E000E011E0E12C84E0F82EF801C7015E
:1029A00011920197E9F7CE010E94EB110E940E11DE
:1029B0002196C536D10511F4C0E0D0E064E670E0A0
:1029C00080E090E00E94360E2196C536D10534F3A2
:1029D0000E940E11C0E0D1E000E014E0FE01C80149
:1029E00011920197E9F78091AD069091AE060E9491
:1029F000EB110E940E118091AD069091AE060196EA
:102A0000853691052CF49093AE068093AD0604C0F4
:102A10001092AE061092AD0668EC70E080E090E097
:102A20000E94360E0E944403D9CF8F929F92AF929C
:102A3000BF92CF92DF92EF92FF92CF93DF93EC01A0
:102A4000688179818A819B81611571058105910574
:102A500021F464E279ED8BE597E02DE133EF41E07D
:102A600050E00E94711549015A019B01AC01A7EA8F
:102A7000B1E40E9490156B017C01ACEEB4EFA501AE
:102A800094010E949E15DC01CB018C0D9D1DAE1D95
:102A9000BF1DB7FF03C00197A109B0488883998380
:102AA000AA83BB83BC01CD019F77DF91CF91FF90BB
:102AB000EF90DF90CF90BF90AF909F908F90089550
:102AC0000E941515089580E095E00E94151508955F
:102AD00060930005709301058093020590930305B0
:102AE0000895052E97FB1EF400940E94881557FD4B
:102AF00007D00E94A31507FC03D04EF40C94881550
:102B000050954095309521953F4F4F4F5F4F089519
:102B100090958095709561957F4F8F4F9F4F089549
:102B20000E94C515A59F900DB49F900DA49F800D88
:102B3000911D11240895B7FF0C9490150E949015D3
:102B4000821B930B0895A1E21A2EAA1BBB1BFD0149
:102B50000DC0AA1FBB1FEE1FFF1FA217B307E4077C
:102B6000F50720F0A21BB30BE40BF50B661F771FD4
:102B7000881F991F1A9469F76095709580959095B4
:102B80009B01AC01BD01CF010895A29FB001B39F8D
:102B9000C001A39F700D811D1124911DB29F700D66
:102BA000811D1124911D08950E94DB156894B111B7
:102BB0000C946A1608950E944F1688F09F5798F05B
:102BC000B92F9927B751B0F0E1F0660F771F881F32
:102BD000991F1AF0BA95C9F714C0B13091F00E944C
:102BE0006916B1E008950C946916672F782F88272D
:102BF000B85F39F0B93FCCF3869577956795B39573
:102C0000D9F73EF490958095709561957F4F8F4FE1
:102C10009F4F0895E89409C097FB3EF490958095E6
:102C2000709561957F4F8F4F9F4F9923A9F0F92F92
:102C300096E9BB279395F695879577956795B79510
:102C4000F111F8CFFAF4BB0F11F460FF1BC06F5FF6
:102C50007F4F8F4F9F4F16C0882311F096E911C008
:102C6000772321F09EE8872F762F05C0662371F029
:102C700096E8862F70E060E02AF09A95660F771F3D
:102C8000881FDAF7880F9695879597F9089557FD6D
:102C90009058440F551F59F05F3F71F04795880FCA
:102CA00097FB991F61F09F3F79F087950895121661
:102CB00013061406551FF2CF4695F1DF08C016160D
:102CC00017061806991FF1CF8695710561050894BE
:102CD0000895E894BB2766277727CB0197F90895D5
:102CE0000E9483160C94F4160E94E61638F00E9497
:102CF000ED1620F0952311F00C94DD160C94E316DC
:102D000011240C946A160E94471670F3959FC1F324
:102D1000950F50E0551F629FF001729FBB27F00D89
:102D2000B11D639FAA27F00DB11DAA1F649F6627DE
:102D3000B00DA11D661F829F2227B00DA11D621F2D
:102D4000739FB00DA11D621F839FA00D611D221FE7
:102D5000749F3327A00D611D231F849F600D211DCB
:102D6000822F762F6A2F11249F5750409AF0F1F04E
:102D700088234AF0EE0FFF1FBB1F661F771F881FB7
:102D800091505040A9F79E3F510580F00C94DD16FC
:102D90000C946A165F3FE4F3983ED4F386957795DA
:102DA0006795B795F795E7959F5FC1F7FE2B880F5D
:102DB000911D9695879597F9089597F99F6780E8F3
:102DC00070E060E008959FEF80EC089500240A947D
:102DD0001616170618060906089500240A941216F6
:102DE0001306140605060895092E0394000C11F429
:102DF000882352F0BB0F40F4BF2B11F460FF04C0D6
:102E00006F5F7F4F8F4F9F4F0895EE0FFF1F05900D
:102E1000F491E02D099481E090E0F8940C9410175F
:042E2000F894FFCF54
:102E2400000000000000000000000000000000009E
:102E3400000000000000000000000000000000008E
:102E4400000000000000000000000000000000007E
:102E540000000000000000000000000000000080EE
:102E6400808000000000000000000000000000005E
:102E7400008080C0C00000000000000000000000CE
:102E8400000000000000000000000000000000003E
:102E9400000000000000000000000000000000002E
:102EA400000000000000000000000000000000001E
:102EB4000000000080C0E0F0F8FCF8E00000000032
:102EC400000000000000000000000000008080807E
:102ED400808000808000000000808080808000FF6F
:102EE400FFFF0000000080808080000080800000E0
:102EF40080FFFF8080008080008080808000808050
:102F04000000000000808000008C8E84000080F8A7
:102F1400F8F880000000000000000000000000003D
:102F2400F0F0F0F0F0F0F0F0F0F0F0F0E0E0C0805D
:102F340000E0FCFEFFFFFF7FFFFFFFFFFF0000003C
:102F44000000000000000000000000FEFFC70101B7
:102F5400010183FFFF00007CFEC70101010183FF23
:102F6400FFFF0038FEC78301010183C7FFFF000094
:102F740001FFFF010100FFFF0701010100007FFFC6
:102F840080000000FFFF7F0000FFFFFF000001FF43
:102F9400FFFF01000000000000000000000000002E
:102FA400030F3F7F7FFFFFFFFFFFFFFFE7C7C78FD1
:102FB4008F9FBFFFFFC3C0F0FFFFFFFFFFFCFCFCC0
:102FC400FCFCFCFCFCF8F8F0F0E0C0000103030397
:102FD40003030103030000000001030303030101D1
:102FE40003010000000103030303010103030000C4
:102FF40000030300000003030000000000000001C0
:1030040003030303030100000001030100000003A4
:1030140003010000000000000000000000000000A8
:1030240000000080C0E0F0F9FFFFFFFFFF3F1F0F2B
:1030340087C7F7FFFF1F1F3DFCF8F8F8F87C7DFFFA
:10304400FFFFFFFFFFFFFF7F3F0F0700303000004F
:10305400000000000000000000000000000000006C
:1030640000000000FEFEFC00000000000000000064
:1030740000000000000000000000000000E0C000AC
:1030840000000000000000000000303000000000DC
:10309400000000000000000000000000000000002C
:1030A40000C0FEFFFFFFFFFFFFFFFFFF7F7F3F1F0B
:1030B4000F071F7FFFFFF8F8FFFFFFFFFFFEF8E099
:1030C400000000010000000000000000FEFE0000FF
:1030D40000FCFEFC0C06060EFCF80000F0F81C0ECA
:1030E4000606060CFFFFFF0000FEFE00000000FCC9
:1030F400FEFC00183C7E66E6CE84000006FFFF0658
:1031040006FCFEFC0C0606060000FEFE0000C0F8ED
:10311400FC4E4646464E7C7840183C76E6CECC8043
:10312400000000000000000000000000000000009B
:103134000000000001070F1F1F3F3F3F3F1F0F0309
:103144000000000000000000000000000F0F00005D
:10315400000F0F0F000000000F0F000003070E0CFC
:1031640018180C060F0F0F0000010F0E0C180C0F8F
:10317400070100040E0C180C0F070000000F0F00CD
:10318400000F0F0F0000000000000F0F00000007E9
:10319400070C0C181C0C060600040E0C180C0F0768
:1031A400000000000000000000000000000000001B
:1031B400000000000000000000000000000000000B
:1031C40000000000000000000000000000000000FB
:1031D40000000000000000000000000000000000EB
:1031E40000000000000000000000000000000000DB
:1031F40000000000000000000000000000000000CB
:1032040000000000000000000000000000000000BA
:1032140000000000000000000000000000000000AA
:1032240001000000000103070F1F3F7F0080C0E082
:10323400F0F8FCFE00000000810D9A100703C80D91
:10324400380316032A0300000000F90CC90C290DE9
:10325400A30CC10CB20CA40C00000000F3089A10DB
:10326400290D280D2906C60BBF0B970BB30BA70B13
:10327400C70B960BC806C7067303CD04BD0A9F0A85
:06328400280AC90925001B
:00000001FF
