:100000000C945A030C9482030C9482030C94820384
:100010000C9482030C9482030C9482030C9482034C
:100020000C9482030C9482030C9482030C9482033C
:100030000C9482030C9482030C9482030C9482032C
:100040000C94E80D0C9482030C94920F0C946C0F9A
:100050000C9482030C9482030C9482030C9482030C
:100060000C94320E0C94820300407A10F35A00A0D4
:10007000724E18090010A5D4E80000E87648170071
:1000800000E40B54020000CA9A3B000000E1F505B1
:10009000000080969800000040420F000000A086FB
:1000A00001000000102700000000E803000000002D
:1000B0006400000000000A000000000001000000D1
:1000C00000002C76D888DC674F0823DFC1DFAE59EB
:1000D000E1B1B796E5E3E453C63AE651997696E87E
:1000E000E6C28426EB898C9B62ED407C6FFCEFBC02
:1000F0009C9F40F2BAA56FA5F490055A2AF75C932D
:100100006B6CF9676DC11BFCE0E40D47FEF520E662
:10011000B500D0ED902E0300943577050080841E45
:10012000080000204E0A000000C80C333333330FA0
:10013000986E12831141EF8D2114893BE65516CF3D
:10014000FEE6DB18D1844B381BF77C1D901DA4BB49
:10015000E424203284725E228100C9F124ECA1E5FE
:100160003D2700000000003E5B4F5B3E3E6B4F6B47
:100170003E1C3E7C3E1C183C7E3C181C577D571C88
:100180001C5E7F5E1C00183C1800FFE7C3E7FF0001
:1001900018241800FFE7DBE7FF30483A060E26294F
:1001A000792926407F050507407F05253F5A3CE712
:1001B0003C5A7F3E1C1C08081C1C3E7F14227F22D8
:1001C000145F5F005F5F06097F017F006689956AA3
:1001D000606060606094A2FFA29408047E0408102E
:1001E000207E201008082A1C08081C2A08081E1057
:1001F0001010100C1E0C1E0C30383E3830060E3E0F
:100200000E06000000000000005F0000000700076D
:1002100000147F147F14242A7F2A12231308646297
:1002200036495620500008070300001C22410000F8
:1002300041221C002A1C7F1C2A08083E0808008056
:1002400070300008080808080000606000201008EE
:1002500004023E5149453E00427F400072494949EF
:10026000462141494D331814127F10274545453921
:100270003C4A494931412111090736494949364625
:100280004949291E00001400000040340000000805
:1002900014224114141414140041221408020159A8
:1002A00009063E415D594E7C1211127C7F49494935
:1002B000363E414141227F4141413E7F49494941CA
:1002C0007F090909013E414151737F0808087F00F9
:1002D000417F41002040413F017F081422417F407F
:1002E0004040407F021C027F7F0408107F3E414156
:1002F000413E7F090909063E4151215E7F091929C6
:1003000046264949493203017F01033F4040403FAF
:100310001F2040201F3F4038403F631408146303F0
:10032000047804036159494D43007F41414102046F
:10033000081020004141417F040201020440404076
:100340004040000307080020545478407F2844446C
:10035000383844444428384444287F385454541886
:1003600000087E090218A4A49C787F080404780081
:10037000447D40002040403D007F10284400004163
:100380007F40007C047804787C0804047838444476
:100390004438FC1824241818242418FC7C0804046D
:1003A00008485454542404043F44243C4040207CD6
:1003B0001C2040201C3C4030403C44281028444C29
:1003C0009090907C4464544C4400083641000000F6
:1003D000770000004136080002010204023C262397
:1003E000263C1EA1A161123A4040207A385454554F
:1003F0005921555579412254547842215554784019
:1004000020545579400C1E527212395555555939A0
:100410005454545939555454580000457C410002F5
:10042000457D420001457C407D1211127DF028255A
:1004300028F07C545545002054547C547C0A097F94
:100440004932494949323A4444443A324A484830A8
:100450003A4141217A3A42402078009DA0A07D3D5A
:100460004242423D3D4040403D3C24FF2424487EE2
:100470004943662B2FFC2F2BFF0929F620C0887ECD
:10048000090320545479410000447D413048484AD2
:1004900032384040227A007A0A0A727D0D19317D85
:1004A0002629292F28262929292630484D40203859
:1004B0000808080808080808382F10C8ACBA2F1018
:1004C0002834FA00007B000008142A142222142A7F
:1004D00014085500550055AA55AA55AAFF55FF55B1
:1004E000FF000000FF00101010FF00141414FF00A4
:1004F0001010FF00FF1010F010F0141414FC001482
:1005000014F700FF0000FF00FF1414F404FC14149F
:1005100017101F10101F101F1414141F001010109C
:10052000F0000000001F101010101F10101010F02D
:1005300010000000FF101010101010101010FF100D
:10054000000000FF140000FF00FF00001F10170054
:1005500000FC04F414141710171414F404F400002D
:10056000FF00F714141414141414F700F7141414DF
:10057000171410101F101F141414F4141010F0107E
:10058000F000001F101F0000001F14000000FC14EA
:100590000000F010F01010FF10FF141414FF1410DE
:1005A00010101F00000000F010FFFFFFFFFFF0F031
:1005B000F0F0F0FFFFFF0000000000FFFF0F0F0F43
:1005C0000F0F3844443844FC4A4A4A347E0202063B
:1005D00006027E027E0263554941633844443C046E
:1005E000407E201E2006027E020299A5E7A5991CE6
:1005F0002A492A1C4C7201724C304A4D4D30304809
:10060000784830BC625A463D3E494949007E010166
:10061000017E2A2A2A2A2A44445F444440514A44FB
:100620004040444A51400000FF0103E080FF0000C9
:1006300008086B6B083612362436060F090F0600C1
:100640000018180000001010003040FF0101001FCA
:1006500001011E00191D1712003C3C3C3C0000002B
:100660000000000000080002010000030407000071
:1006700000000000000000000000250028002B0002
:1006800000000000240027002A00040404040404DD
:100690000404020202020202030303030303010231
:1006A0000408102040800102040810200102040800
:1006B0001020FD1511241FBECFEFD8E0DEBFCDBF47
:1006C00015E0A0E0B1E0ECE3F5E302C005900D9287
:1006D000A039B107D9F728E0A0E9B5E001C01D9223
:1006E000A133B207E1F713E0CAE5D3E004C02197D4
:1006F000FE010E94821AC935D107C9F70E94521221
:100700000C949C1A0C9400003FB7F8948091D80583
:100710009091D905A091DA05B091DB0526B5A89B8B
:1007200005C02F3F19F00196A11DB11D3FBFBA2F83
:10073000A92F982F8827820F911DA11DB11DBC01E3
:10074000CD0142E0660F771F881F991F4A95D1F7A8
:1007500008950F931F93CF93DF93DC0155968C91EF
:100760005597823071F0833009F1813009F08CC0E7
:100770001496ED91FC911597E41BF50BE21BF30B1E
:1007800020C01496ED91FC911597CF01861B970B15
:10079000BC01615071091696ED91FC911797CF013C
:1007A000841B950BAC01421B530B6EC01696ED914A
:1007B000FC911797CF01861B970BBC016150710903
:1007C000FA0177FD1BC116968D919C9117976817BA
:1007D00079070CF013C1F7FF04C02E0F3F1FE0E0B4
:1007E000F0E014968D919C911597AF01420F531F25
:1007F000841795071CF49C012E1B3F0B1216130641
:100800000CF0FCC0CB0177FD079643E095958795EA
:100810004A95E1F79695982F882797958795E80F41
:10082000F91FE050FF4F6770772781E090E001C02B
:10083000880F6A95EAF7482F0130110541F088F0DA
:100840000230110509F0DAC02E0F3F1F15C02E0F20
:100850003F1FE217F30709F4D1C08081842B8193F5
:10086000F8CF80952E0F3F1FE217F30709F4C6C09B
:10087000908198239193F8CFE217F30709F4BEC053
:10088000808184278193F8CF77FDB8C014968D912D
:100890009C911597681779070CF0B0C057FF04C0FA
:1008A000240F351F40E050E016968D919C911797CC
:1008B000FA01E20FF31F8E179F071CF49C01241B03
:1008C000350B121613060CF099C0A22F842F8695B3
:1008D0008695869590E8899F600D711D1124FB0116
:1008E000E050FF4F4770A9F198E0941B492F50E06A
:1008F000EA01C85FDA4F8881291790F4421B510939
:100900002FEF30E002C0359527954A95E2F7822314
:100910000130110541F068F00230110589F06EC018
:100920000130110519F42081822B0CC00130110512
:1009300020F480952081822305C00230110531F416
:10094000208182278083A91708F458C0A91BE0588A
:10095000FF4FA83048F10230110559F4EF018A2FFA
:10096000988190959883C058DF4F88508830C0F7A1
:1009700030C081E00130110509F080E08195EF0180
:100980009A2F8883C058DF4F98509830D0F788EF5F
:100990008A0F86958695869590E8899FE00DF11DD2
:1009A0001124E058FF4FA770AA2341F1B0E0A050F6
:1009B000BB4F8C910130110529F038F00230110540
:1009C000D1F01CC09081892B18C08095908189231B
:1009D00014C088EF8A0F86958695869590E8899F42
:1009E000E00DF11D1124E058FF4FA77039F0B0E081
:1009F000A050BB4F8C91908189278083DF91CF914C
:100A00001F910F9108950F931F93CF93DF93DC01F4
:100A1000FB0155968C915597823081F0833019F106
:100A2000813051F514968D919C911597BC01641BF2
:100A3000750BAB0141505109BF0181C014966D91F6
:100A40007C911597CB018E1B9F0BFC0116968D9107
:100A50009C911797BC01641B750BAB014150510968
:100A6000E21BF30B09C016966D917C9117976E1BD4
:100A70007F0B621B730B63C057FD1CC116968D91D3
:100A80009C911797481759070CF014C1F7FF04C041
:100A90002E0F3F1FE0E0F0E014968D919C9115978A
:100AA000BF01620F731F861797071CF49C012E1B52
:100AB0003F0B121613060CF0FDC0CA0157FD079636
:100AC00063E0959587956A95E1F79695982F882725
:100AD00097958795E80FF91FE050FF4F477055270E
:100AE00081E090E001C0880F4A95EAF7482F013075
:100AF000110541F088F00230110509F0DBC02E0F1E
:100B00003F1F15C02E0F3F1FE217F30709F4D2C095
:100B10008081842B8193F8CF80952E0F3F1FE217A1
:100B2000F30709F4C7C0908198239193F8CFE21797
:100B3000F30709F4BFC0808184278193F8CF57FD64
:100B4000B9C014968D919C911597481759070CF0D0
:100B5000B1C077FF04C0260F371F60E070E0169623
:100B60008D919C911797FB01E20FF31F8E179F0742
:100B70001CF49C01261B370B121613060CF09AC0AE
:100B8000A22F862F86958695869590E8899F400DA1
:100B9000511D1124FA01E050FF4F6770A9F198E050
:100BA000961B492F50E0EA01C85FDA4F8881291768
:100BB00090F4421B51092FEF30E002C03595279584
:100BC0004A95E2F782230130110541F068F00230C6
:100BD000110589F06FC00130110519F42081822BB5
:100BE0000CC00130110520F480952081822305C0BE
:100BF0000230110531F4208182278083A91708F47F
:100C000059C0A91BE058FF4FA83048F10230110528
:100C100059F4EF018A2F988190959883C058DF4F3F
:100C200088508830C0F731C081E00130110509F0EB
:100C300080E08195EF019A2F8883C058DF4F98504C
:100C40009830D0F788EF8A0F86958695869560E86C
:100C5000869FE00DF11D1124E058FF4FA770AA23D5
:100C600049F1B0E0A050BB4F8C910130110529F043
:100C700038F002301105D9F01DC09081892B03C0D6
:100C8000809590818923808315C088EF8A0F86958F
:100C90008695869570E8879FE00DF11D1124E05838
:100CA000FF4FA77039F0B0E0A050BB4F8C919081FE
:100CB0008927E9CFDF91CF911F910F910895FC0112
:100CC00077FD9AC080859185681779070CF094C0EC
:100CD00057FD92C082859385481759070CF08CC048
:100CE0008589823009F07CC084819581DC01A61B56
:100CF000B70BBD016150710986819781FC01E41B2E
:100D0000F50BAF01415051090AC0813041F4848193
:100D10009581841B950BAB01BC0161507109213099
:100D2000310529F008F122303105E1F10895FA0189
:100D300057FD3796A3E0F595E795AA95E1F7F69567
:100D4000FE2FEE27F795E7956E0F7F1FFB01E05012
:100D5000FF4F4770552781E090E001C0880F4A950A
:100D6000EAF79081892B3AC0FA0157FD379623E0C4
:100D7000F595E7952A95E1F7F695FE2FEE27F7957D
:100D8000E7956E0F7F1FFB01E050FF4F477055271F
:100D900081E090E001C0880F4A95EAF78095908144
:100DA00089231CC0FA0157FD379683E0F595E79536
:100DB0008A95E1F7F695FE2FEE27F795E7956E0FEA
:100DC0007F1FFB01E050FF4F4770552781E090E007
:100DD00001C0880F4A95EAF790818927808308959A
:100DE000833009F092CF86819781861B970BBA01D9
:100DF000AC014150510993CF08950895FC016370EF
:100E0000658B8481958126813781613039F063302B
:100E100029F091878087338722870895318720873B
:100E20009387828708952F923F924F925F926F929D
:100E30007F928F929F92AF92BF92CF92DF92EF926A
:100E4000FF920F931F93CF93DF93CDB7DEB76C97CD
:100E50000FB6F894DEBF0FBECDBF9C8F8B8F5B01AA
:100E60001A011F830E833701C982DC0158964D9108
:100E70005C9159974115510509F0E5C018968D917F
:100E80009C911997681779070CF0CAC11A968D9131
:100E90009C911B97281639060CF0C2C18C2C912C02
:100EA000FB0136E0C39EE00DF11D1124FB87EA87AC
:100EB0001E161F060CF0B4C1C40133E0880F991F41
:100EC0003A95E1F79D878C87820D931D18161906B8
:100ED0000CF0A6C157968C91811103C0203B08F0FD
:100EE0002F5FAB8DBC8DED91FC9111970284F38542
:100EF000E02DCD012A8F09952A8DB5E02B9F900119
:100F00001124F5013596FF87EE87BB82AA82250161
:100F1000A9014A195B09598B488BC10108969B8B23
:100F20008A8BE889F989E40DF51DEE59FE4F9491FD
:100F3000988761013D822C82A885A0FF13C0AB8DEC
:100F4000BC8DED91FC91B981B13031F40484F5850B
:100F5000E02D2E813F8116C00684F785E02DEE80BE
:100F6000FF801AC0EE81FF816E167F06F1F0AB8D17
:100F7000BC8DED91FC91B981B13051F40484F585BB
:100F8000E02D9301A601B2018B8D9C8D09950DC0BA
:100F90000684F785E02D7301840194014C815D8105
:100FA0006A817B818B8D9C8D0995E885E695E88724
:100FB000FFEFCF1ADF0A2C813D81280D391D3D83BB
:100FC0002C834A895B89C416D50609F0B5CF5FEF3B
:100FD000451A550A8A819B81880D991D9B838A83B6
:100FE000AE85BF854A165B0609F09BCFEE81FF8177
:100FF0006E167F0609F4F2C0EB8DFC8DA081B181E5
:10100000F981F13079F4B5016B5F7F4F5096ED9126
:10101000FC915197830128E030E0A1018B8D9C8DDC
:101020000995DCC06A857B85681979091E96ED9162
:10103000FC911F9773010C851D859401A1018B8D77
:101040009C8D0995CBC0FA013496949132976591A5
:101050007491291BCB01B7E02B9F800D911D1124AA
:10106000FA01259134913B8B2A8BFC0145915491D7
:101070005B834A83FC013296C490319654915E871B
:10108000329614913196D4908981823058F0612E35
:10109000012E000C7708AD2D0D2C000CBB0BB98771
:1010A000A88704C019861886612C712CAB8DBC8D65
:1010B000ED91FC9111970284F385E02DCD01099506
:1010C000B9818B2E912C689CC001699C900D789CF5
:1010D000900D1124FC01EA0DFB1DFD87EC871C829D
:1010E000712C612CE12F110FFF0B95012E0F3F1F6B
:1010F0003B872A87AC0CB11CA5014E0F5F1F5F8B8D
:101100004E8BC1018D0D911DD7FC9A95998F888FBB
:101110004E85641608F062C0862D90E0488559859A
:10112000480F591F489D9001499D300D589D300D25
:101130001124D901A20DB31DB98BA88BAA84BB843D
:101140004C845D84DC80BA85DB1AE88DF98DE80F6C
:10115000F91FFD8BEC8B8D2D8A0D2E893F89A216F0
:10116000B306B9F1877061F48A819B810196EA899F
:10117000FB89AA81BB81EA0FFB1F74909B838A8342
:1011800077FE20C0AB8DBC8DED91FC91B981B13063
:1011900061F40484F585E02D2E813F814C895D89C1
:1011A000B5018B8D9C8D09950DC00684F785E02DCA
:1011B000EE80FF808401940148895989B2018B8DAA
:1011C0009C8D0995770CEFEFAE1ABE0A480C591C9E
:1011D000C2CF3C813C0D3C8363949ACFAB8DBC8DD8
:1011E000ED91FC9111970688F789E02DCD016C9661
:1011F0000FB6F894DEBF0FBECDBFDF91CF911F9128
:101200000F91FF90EF90DF90CF90BF90AF909F90A5
:101210008F907F906F905F904F903F902F900994A8
:101220006C960FB6F894DEBF0FBECDBFDF91CF91A5
:101230001F910F91FF90EF90DF90CF90BF90AF90F4
:101240009F908F907F906F905F904F903F902F90E6
:101250000895AF92BF92CF92EF92FF920F931F9398
:10126000CF93DF93EC01262F888D998D009709F09D
:1012700040C06A3059F41D861C862C898E859F8556
:1012800038E0239F800D911D112441C06D3009F479
:10129000AAC08E898823C1F03C898C859D8546E053
:1012A000349F800D911D1124488559854817590791
:1012B0005CF41D861C868E859F8548E0349F800DDA
:1012C000911D11249F878E87EA88FB8808891989D8
:1012D0004E855F856C857D85CC88CE010E94130785
:1012E0002C898C859D8536E0239F800D911D1124CE
:1012F00042C06A3079F41D861C862C89FC01369622
:10130000E4918E859F852E9F800D911D11249F87CE
:101310008E8769C06D3009F466C0FC013496349143
:10132000631708F460C03196E491E61708F45BC0D7
:10133000FC013296A590B490462F50E0431B510912
:1013400037E0349FB001359F700D1124A60EB71EF3
:10135000F501329634913196E491332311F0E11185
:101360000DC0F5013496E4912C898C859D85E29F12
:10137000800D911D11249D878C8735C0F501359610
:1013800044915E89552311F16C89E32FF0E0E40F5D
:10139000F11D47FDFA956E9FD0016F9FB00D11248E
:1013A0004C855D854A0F5B1FE885F985E417F507D5
:1013B0006CF41D861C86FC013696E4918E859F8513
:1013C0006E9F800D911D11249F878E87EA88FB8870
:1013D000088919894E855F856C857D85CC88CE010D
:1013E0000E941307BECF81E090E0DF91CF911F9163
:1013F0000F91FF90EF90CF90BF90AF9008956F92B4
:101400007F928F929F92AF92BF92CF92DF92EF9294
:10141000FF920F931F93CF93DF93EC014B015A017F
:1014200069013801E881F9810284F385E02D09958D
:10143000E881F9810288F389E02D87019601A501F1
:10144000B401CE010995E881F981A501460D571D2A
:10145000415051090288F389E02D9601B401CE0173
:101460000995E881F9810088F189E02D9301A501B2
:10147000B401CE010995E881F981C80CD91CB601E7
:10148000615071090088F189E02D9301A501CE0119
:101490000995E881F9810688F789E02DCE01DF9171
:1014A000CF911F910F91FF90EF90DF90CF90BF9061
:1014B000AF909F908F907F906F900994CF92DF9222
:1014C000EF92FF920F931F93CF93DF9300D000D042
:1014D00000D0CDB7DEB76C01DC01ED91FC91621755
:1014E000730789F4041715072CF4942F852FA8018E
:1014F000092F182F041B150B98012F5F3F4F048CE9
:10150000F58DE02D12C04017510709F52617370752
:101510002CF4962F872FB901292F382F261B370B34
:101520002F5F3F4F068CF78DE02D8701C60109958F
:1015300026960FB6F894DEBF0FBECDBFDF91CF91D8
:101540001F910F91FF90EF90DF90CF90089502844C
:10155000F385E02D2D833E834B835C8369837A83FF
:101560000995D601ED91FC910488F589E02D2D8136
:101570003E814B815C8169817A81C6010995D601E2
:10158000ED91FC910688F789E02DC60126960FB6ED
:10159000F894DEBF0FBECDBFDF91CF911F910F91A9
:1015A000FF90EF90DF90CF900994EF92FF920F930E
:1015B0001F93DC01ED91FC9111971A960D911C91EE
:1015C0001B9718962D913C91199700A0F1A1E02D41
:1015D0007B0140E050E060E070E009951F910F91C1
:1015E000FF90EF9008954F925F926F927F928F924B
:1015F0009F92AF92BF92CF92DF92EF92FF920F93A2
:101600001F93CF93DF9300D0CDB7DEB76C015A01A3
:1016100039014801DC01ED91FC910284F385E02D54
:1016200069837A8309956981462E7A81572E640CE5
:10163000751CD601ED91FC91461457046CF400889A
:10164000F189E02D87019401A501B201C601099538
:10165000BFEF4B1A5B0AEDCF0688F789E02DC60174
:101660000F900F90DF91CF911F910F91FF90EF900E
:10167000DF90CF90BF90AF909F908F907F906F90B2
:101680005F904F900994AF92BF92CF92DF92EF920A
:10169000FF920F931F93CF93DF9300D000D0CDB76D
:1016A000DEB75C016901DC01ED91FC910284F385F8
:1016B000E02D4B835C8369837A830995D501ED9195
:1016C000FC9169817A819B012C0D3D1D21503109CE
:1016D0000488F589E02D78014B815C818A01C50180
:1016E0000995D501ED91FC910688F789E02DC5019A
:1016F0000F900F900F900F90DF91CF911F910F914E
:10170000FF90EF90DF90CF90BF90AF900994AF9291
:10171000BF92CF92DF92EF92FF920F931F93CF93DE
:10172000DF9300D000D0CDB7DEB75C016901DC01EA
:10173000ED91FC910284F385E02D4B835C836983FA
:101740007A830995D501ED91FC914B815C81C40EA2
:10175000D51EB1E0CB1AD1080488F589E02D7801B7
:10176000860169817A819B01C5010995D501ED91B9
:10177000FC910688F789E02DC5010F900F900F901E
:101780000F90DF91CF911F910F91FF90EF90DF901D
:10179000CF90BF90AF9009940895EF92FF920F936E
:1017A0001F93DC01ED91FC9100A0F1A1E02D0995C2
:1017B0001F910F91FF90EF9008950F931F93DC01FD
:1017C000ED91FC91068CF78DE02D09951F910F91FD
:1017D00008950F931F93DC01ED91FC91048CF58D1E
:1017E000E02D09951F910F910895DC01ED91FC9179
:1017F0000084F185E02D099408952F923F924F9235
:101800005F926F927F928F929F92AF92BF92CF9290
:10181000DF92EF92FF920F931F93CF93DF9300D04D
:101820001F92CDB7DEB74C017B836A836A015901F1
:1018300017019801241B350B37FF03C03195219503
:101840003109C5014A815B81841B950B97FF03C059
:1018500091958195910951E059838217930714F06E
:1018600019820BC09A2D8B2D5801092F182F9A81A0
:101870008B81DB82CA82C92ED82E8A819B81A816D1
:10188000B9065CF49C2D8D2D6801092F182F9A81C3
:101890008B81BB82AA82A92EB82E2501AA81BB8189
:1018A0004A1A5B0A38016C187D0877FE03C07194F0
:1018B00061947108720157FE03C0BFEFEB1AFB0A77
:1018C000F594E794C016D1061CF00FEF1FEF1FC070
:1018D00001E010E01CC0D401ED91FC91B9810484B9
:1018E000F585E02D9101BB23C1F04A815B81B601F2
:1018F000C4010995E618F708F7FE04C0C00ED11E12
:10190000E40CF51CEA81FB813196FB83EA834A8172
:101910005B81A416B506FCF604C0A6016A817B8132
:10192000E7CF0F900F900F90DF91CF911F910F9104
:10193000FF90EF90DF90CF90BF90AF909F908F90EF
:101940007F906F905F904F903F902F90089585ED1E
:101950008093BC008091BC0084FDFCCF10923507C1
:1019600008954091B205262F30E0240F311D213219
:101970003105DCF4209135072430C9F4FC0180E006
:1019800090E0861758F43091B2052191DC01A05700
:10199000BA4FA30FB11D2C930196F3CF8091B205DE
:1019A000680F6093B20580E0089581E0089582E0B9
:1019B0000895089581E090E03091DD052091DC05E7
:1019C000321710F480E090E0919581959109089587
:1019D0008091DD059091DC05891730F48F5F80934D
:1019E000DD0580E090E008958FEF9FEF08958091EE
:1019F000DC0590E02091DD05821B91090895CF92CE
:101A0000DF92EF92FF920F931F93CF93DF937C01AE
:101A1000262F972F8A0180913607882391F0C62FB1
:101A2000D72F6E01C40ED51ECC15DD0571F069915E
:101A3000D701ED91FC910190F081E02DC70109954E
:101A4000F3CF642F822F0E94B10CC801DF91CF9198
:101A50001F910F91FF90EF90DF90CF900895CF935B
:101A6000DF931F92CDB7DEB769832091360722231B
:101A7000D1F020915807203240F021E030E0FC0105
:101A80003383228380E090E015C080913707E82FF0
:101A9000F0E0E85CF84F998190838F5F809337077F
:101AA0008093580705C061E0CE0101960E94B10CF9
:101AB00081E090E00F90DF91CF910895089580E04C
:101AC00090E0089590E0FC01EE59F94F3491FC014B
:101AD000E256F94F2491FC01E657F94FE491EE23C9
:101AE00009F43BC0332339F1333091F038F431300D
:101AF000A9F0323001F584B58F7D12C0373091F0F6
:101B00003830A1F03430B9F4809180008F7D03C06B
:101B1000809180008F77809380000DC084B58F778F
:101B200084BD09C08091B0008F7703C08091B00060
:101B30008F7D8093B000F0E0EE0FFF1FEA58F94F61
:101B4000A591B4918FB7F894EC91611103C02095E1
:101B50002E2301C02E2B2C938FBF08958F929F921E
:101B6000AF92BF92CF92DF92EF92FF926B017C0116
:101B70000E9484034B015C01C114D104E104F1040F
:101B8000F1F00E948403DC01CB0188199909AA09AC
:101B9000BB09883E9340A105B10570F321E0C21A4C
:101BA000D108E108F10888EE880E83E0981EA11C98
:101BB000B11CC114D104E104F10419F7DDCFFF9089
:101BC000EF90DF90CF90BF90AF909F908F9008954F
:101BD0001F920F920FB60F9211242F933F938F9362
:101BE0009F93AF93BF938091DE059091DF05A09105
:101BF000E005B091E1053091D70523E0230F2D37A3
:101C000020F40196A11DB11D05C026E8230F029600
:101C1000A11DB11D2093D7058093DE059093DF05AC
:101C2000A093E005B093E1058091D8059091D90586
:101C3000A091DA05B091DB050196A11DB11D80933D
:101C4000D8059093D905A093DA05B093DB05BF9131
:101C5000AF919F918F913F912F910F900FBE0F9059
:101C60001F9018951F920F920FB60F9211242F9369
:101C70003F934F935F936F937F938F939F93AF9314
:101C8000BF93EF93FF938091B900887F803609F46A
:101C90009CC068F5883209F45BC090F4803109F487
:101CA00054C038F4882309F4F6C0883009F44DC0D4
:101CB000F6C0883109F44CC0803209F45DC0EFC031
:101CC000803409F468C048F4803309F455C088337F
:101CD00009F0E5C080933307D8C0803509F44FC0C0
:101CE000883509F45DC0883409F0D9C0D6C0883978
:101CF00009F4C7C0A8F4883709F467C038F48836F7
:101D000009F463C0803709F460C0C9C0883809F499
:101D1000B8C0803909F45FC0803809F0C0C05BC02A
:101D2000803B09F486C038F4803A09F466C0883AEA
:101D300009F47FC0B4C0803C09F4A7C0883C09F412
:101D4000A4C0883B09F48AC0AAC08091100710C0C3
:101D50009091320780913107981770F5E091320722
:101D600081E08E0F80933207F0E0EF5EF84F8081C4
:101D70008093BB0085EC86C0809333078EC0E091D2
:101D8000320781E08E0F809332078091BB00F0E034
:101D9000EF5EF84F808390913207809131076EC0DB
:101DA000E091320781E08E0F809332078091BB0073
:101DB000F0E0EF5EF84F80838091340781116DC0B1
:101DC00081E080930F0784EA61C083E08093350748
:101DD0001092D605CFCF8091D605803208F051C041
:101DE000E091D60581E08E0F8093D6058091BB00EF
:101DF000F0E0EA54FA4F8083BDCF85EC8093BC00BD
:101E0000109235078091D605803230F4E091D605E6
:101E1000F0E0EA54FA4F10826091D60570E0E0914C
:101E2000B405F091B50586EB95E009951092D605BD
:101E300036C084E0809335071092B3051092B20546
:101E4000E091B005F091B10509958091B20581113D
:101E500005C081E08093B20510929005E091B30532
:101E600081E08E0F8093B305F0E0E057FA4F808158
:101E70008093BB009091B3058091B205981708F448
:101E800079CF85E88093BC000AC085EC8093BC00C4
:101E90001092350704C0109233070E94A70CFF91DF
:101EA000EF91BF91AF919F918F917F916F915F91D2
:101EB0004F913F912F910F900FBE0F901F9018954B
:101EC00089E597E00E94881021E0892B09F420E041
:101ED000822F08950E94971A1F920F920FB60F92A9
:101EE00011242F933F934F935F936F937F938F931F
:101EF0009F93AF93BF93EF93FF9389E597E00E9481
:101F0000B311FF91EF91BF91AF919F918F917F910D
:101F10006F915F914F913F912F910F900FBE0F9056
:101F20001F9018951F920F920FB60F9211242F93A6
:101F30008F939F93EF93FF93E0916907F0916A0766
:101F40008081E0916F07F091700782FD12C090814F
:101F5000809172078F5F8F7320917307821751F002
:101F6000E0917207F0E0E75AF84F958F809372077F
:101F700001C08081FF91EF919F918F912F910F90E0
:101F80000FBE0F901F901895209158079091300820
:101F9000213208F04AC0809135078111FCCF32E030
:101FA0003093350731E0309334073FEF30933307F8
:101FB0001092320720933107A8E3B7E041E157E0E0
:101FC000FA013E2F341B321718F43D913193F9CFAB
:101FD0001092100720911007990F922B90931007E1
:101FE00090910F07913061F410920F0790911007B4
:101FF0009093BB009091BC0093FDF8CF95EC01C08D
:1020000095EE9093BC00909135079230E1F390915A
:1020100033079F3F79F080913307803241F0809100
:102020003307803331F084E005C081E003C082E0F3
:1020300001C083E0109237071092580710923607BC
:10204000089590912308992339F08EBD00000DB4B6
:1020500007FEFDCF8EB5089528E030E040E8E0911E
:102060002608F0912708508190912D08909595238E
:102070009083E0912408F091250890912C08542F2A
:10208000582319F05081952B03C0508190959523CA
:102090009083E0912608F0912708508190912D08B7
:1020A000952B9083469521503109C9F60895FC017E
:1020B000538D448D252F30E0842F90E0821B930BAD
:1020C000541710F0CF96089501970895FC01918D53
:1020D000828D981761F0828DDF01A80FB11D5D968A
:1020E0008C91928D9F5F9F73928F90E008958FEFF8
:1020F0009FEF0895FC01918D828D981731F0828DAC
:10210000E80FF11D858D90E008958FEF9FEF089502
:10211000FC01918D228D892F90E0805C9F4F821B66
:1021200091098F739927089580E090E0892B29F019
:102130000E94600F81110C9400000895CF92DF92ED
:10214000EF92FF920F931F93CF93DF936C017A016D
:102150008B01C0E0D0E0CE15DF0589F0D8016D918C
:102160008D01D601ED91FC910190F081E02DC60129
:102170000995892B11F47E0102C02196ECCFC7018D
:10218000DF91CF911F910F91FF90EF90DF90CF9053
:102190000895CF93C82F80911E088F3F59F1E09189
:1021A0002808F0912908808190912E08982B90831F
:1021B000E0912A08F0912B08208190912F089095AA
:1021C00092239083E0912808F09129082081909132
:1021D0002E089095922390838C2F0E942110E091DD
:1021E0002808F0912908908180912E08892B8083FE
:1021F000CF91089580911C0891E0909336078093C9
:102200003008109237071092580760E086EF97E089
:102210000E942F0D6C2F86EF97E00E942F0DCF911B
:102220000C94C40FEF92FF920F931F93CF93DF9301
:1022300081E20E94C91080E00E94C9108FE70E94CD
:10224000C91082E20E94C91080E00E94C91087E094
:102250000E94C91080911E088F3F79F1E0912808F3
:10226000F0912908908180912E08892B8083E0913C
:102270002A08F0912B08908180912F08892B808368
:10228000E0912808F0912908908180912E0880958E
:1022900089238083C0E0D1E089910E94211085E0EC
:1022A000C030D807C9F7E0912808F091290890813B
:1022B00080912E08892B808330C0F090B8008CE08C
:1022C0008093B800C0E0D1E0EE24E39480911C0834
:1022D000E092360780933008109237071092580723
:1022E00060E486EF97E00E942F0D00E010E0FE0111
:1022F000E00FF11F608186EF97E00E942F0D0F5FC6
:102300001F4F0031110599F70E94C40F609685E0B8
:10231000C030D807D9F6F092B800DF91CF911F9165
:102320000F91FF90EF90089590E0FC01E256F94F75
:102330002491FC01E657F94F8491882399F090E0AD
:10234000880F991FFC01E058F94FA591B491FC0149
:10235000EA58F94F859194918FB7F894EC91E22B5C
:10236000EC938FBF0895FC01848DDF01A80FB11D90
:10237000A35ABF4F2C91848D90E001968F739927BB
:10238000848FA689B7892C93A089B1898C918064A8
:102390008C93938D848D981306C00288F389E02D69
:1023A00080818F7D80830895EF92FF920F931F931A
:1023B000CF93DF93EC0181E0888F9B8D8C8D9813F8
:1023C00005C0E889F989808185FD24C0F62E0B8D32
:1023D00010E00F5F1F4F0F731127E02E8C8DE81256
:1023E0000CC00FB607FCFACFE889F989808185FF18
:1023F000F5CFCE010E94B311F1CF8B8DFE01E80F16
:10240000F11DE35AFF4FF0820B8FEA89FB8980812F
:10241000806207C0EE89FF896083E889F98980813D
:102420008064808381E090E0DF91CF911F910F91D4
:10243000FF90EF900895CF93DF93EC01888D882370
:10244000C9F0EA89FB89808185FD05C0A889B98921
:102450008C9186FD0FC00FB607FCF5CF808185FFFC
:10246000F2CFA889B9898C9185FFEDCFCE010E946A
:10247000B311E7CFDF91CF9108956115710579F020
:10248000FB0101900020E9F73197AF01461B570B84
:10249000DC01ED91FC910280F381E02D099480E054
:1024A00090E00895CF93DF93CDB7DEB7A2970FB634
:1024B000F894DEBF0FBECDBF789484B5826084BD32
:1024C00084B5816084BD85B5826085BD85B5816038
:1024D00085BD80916E00816080936E0010928100B6
:1024E0008091810082608093810080918100816071
:1024F0008093810080918000816080938000809132
:10250000B10084608093B1008091B00081608093BD
:10251000B00080917A00846080937A0080917A0084
:10252000826080937A0080917A00816080937A0043
:1025300080917A00806880937A001092C100109296
:10254000F9061092FA061092FB061092FC06109201
:10255000F3061092F4061092F5061092F60684E047
:1025600090E09093F8068093F70682E080931D0830
:102570008CE380931C0880911E088F3F09F4B6C03D
:10258000809120080E949411809122080E94941149
:1025900080912208082E000C990BFC01E657F94F98
:1025A000E491F0E0EE0FFF1FEA58F94F25913491C6
:1025B0003093290820932808FC01E256F94FE49152
:1025C000E0932E0880912008082E000C990BFC0146
:1025D000E657F94FE491F0E0EE0FFF1FEA58F94F8C
:1025E0002591349130932B0820932A08FC01E25660
:1025F000F94FE491E0932F088091230881113CC0AA
:1026000080911E080E94941180911F080E949411CD
:1026100080911F08082E000C990BFC01E657F94F1A
:10262000E491F0E0EE0FFF1FEA58F94F2591349145
:102630003093270820932608FC01E256F94FE491D5
:10264000E0932D0880911E08082E000C990BFC01C8
:10265000E657F94FE491F0E0EE0FFF1FEA58F94F0B
:10266000259134913093250820932408FC01E256EB
:10267000F94FE491E0932C0880912308882309F412
:102680005CC01FB7F8948091E205811124C0E4E991
:10269000F6E08491E8EAF6E09491E82FF0E0EE0F9E
:1026A000FF1FE058F94FA591B491EC91E92321F473
:1026B00061E08AE00E94620D8AE00E9494118CB56C
:1026C00080618CBD8CB580648CBD8DE00E949411BE
:1026D0008BE00E9494118091E2058F5F8093E20568
:1026E0001FBF80E58CBD81E08DBD27C01092DD0548
:1026F0001092DC0510923707109258071092350798
:1027000081E08093340710920F0761E082E10E941C
:10271000620D61E083E10E94620D8091B9008E7FBD
:102720008093B9008091B9008D7F8093B90088E4CF
:102730008093B80085E48093BC008091210887FDD8
:102740001DC00E94941161E0809121080E94620DD9
:1027500061E070E080E090E00E94AE0D60E080916A
:1027600021080E94620D6AE070E080E090E00E9423
:10277000AE0D61E0809121080E94620D8EEA0E94F8
:10278000C91085ED0E94C91080E80E94C91088EA2E
:102790000E94C9108FE30E94C91083ED0E94C910E6
:1027A00080E00E94C91080E40E94C9108DE80E9458
:1027B000C91084E10E94C91080E20E94C91080E023
:1027C0000E94C91081EA0E94C91088EC0E94C910B9
:1027D0008AED0E94C91082E10E94C91081E80E941E
:1027E000C9108FEC0E94C91089ED0E94C91081EFB9
:1027F0000E94C9108BED0E94C91080E40E94C9108C
:1028000084EA0E94C91086EA0E94C9108EE20E94E2
:10281000C9108FEA0E94C91080E094E0E0E0F1E086
:10282000DF018C011D9201501040E1F781E090E042
:1028300090931508809314089093130880931208BE
:102840008093160810920F0810920E08109211082B
:102850001092100860E675E082E098E00E943D1258
:1028600010920F0810920E0880E190E090931108EA
:102870008093100868E675E082E098E00E943D12BF
:1028800010920F0810920E0888E290E090931108C1
:102890008093100860E775E082E098E00E943D12A6
:1028A00010920F0810920E0882E390E090931108A6
:1028B0008093100863E875E082E098E00E943D1282
:1028C0000E94121168EB7BE080E090E00E94AE0D68
:1028D000CC24C394D12C2AE0422E512C612C712C93
:1028E00030E0232E31E0332E812C912C40E8A42EB1
:1028F0004FE3B42E2FB7F8948091DE059091DF0559
:10290000A091E005B091E1052FBF80930B07909354
:102910000C07A0930D07B0930E072FB7F894809182
:10292000DE059091DF05A091E005B091E1052FBF94
:102930002FB7F8944091DE055091DF056091E005D6
:102940007091E1052FBF40910707509108076091F2
:10295000090770910A078C019D01041B150B260BBA
:10296000370BB901A80140345C4961057105E0F0FD
:102970008093070790930807A0930907B0930A076D
:102980004091050750910607052E000C660B770B4A
:102990004093010750930207609303077093040765
:1029A000109206071092050720910507309106073F
:1029B0004091FF06509100072417350741F03093EE
:1029C00000072093FF06D092FE06C092FD064091BC
:1029D0000707509108076091090770910A078C0159
:1029E0009D01041B150B260B370BB901A8014839B3
:1029F0005A436105710508F46DC0809307079093F1
:102A00000807A0930907B0930A07A091F706B091B1
:102A1000F8062091F9063091FA064091FB06509194
:102A2000FC060E94771A6093F3067093F406809375
:102A3000F5069093F6060E945A1926EA3BE944EC03
:102A40005AE30E94E8196093EF067093F0068093B2
:102A5000F1069093F2068E010E5D1F4F22E041E0D9
:102A60000E946216B80189E597E00E943D126DE868
:102A700075E089E597E00E943D122091F3063091C0
:102A8000F4064091F5065091F60619A2015011097D
:102A9000CA01B901A30192010E94551A605DD801D3
:102AA0006E938D01211531054105510589F7BD0151
:102AB00089E597E00E943D126DE875E089E597E0B1
:102AC0000E943D121092F9061092FA061092FB062F
:102AD0001092FC06F10100E014E011920150104048
:102AE000E1F70091F3061091F406EE24E394F12C43
:102AF00024E630E04FE050E065E070E082E098E0EE
:102B00000E945E0A0E94121180910B0790910C079F
:102B1000A0910D07B0910E074091EB065091EC0685
:102B20006091ED067091EE068C019D01041B150B62
:102B3000260B370BB901A801443F514061057105CF
:102B400008F458C08093EB069093EC06A093ED0632
:102B5000B093EE06EBEEF5E0DF0112968D919C91BD
:102B600013978D939D9326E0A93EB207B1F710927B
:102B7000EA061092E90661E070E080E090E00191E1
:102B80001191012E000C220B330B60177107820785
:102B9000930710F4C901B80136E0EB3EF30779F76B
:102BA0006093E7057093E8058093E9059093EA0543
:102BB000663371058105910598F00E945A199B01B1
:102BC000AC0160E070E084E592E40E94E818609354
:102BD000E3057093E4058093E5059093E60508C04E
:102BE0008092E3059092E405A092E505B092E60597
:102BF0000E9412110E9494107DCEE9E5F7E0138245
:102C0000128288EE93E0A0E0B0E084839583A683EF
:102C1000B78324E135E03183208325EC30E035872C
:102C2000248724EC30E03787268720EC30E0318B96
:102C3000208B21EC30E0338B228B22EC30E0358B83
:102C4000248B26EC30E0378B268B118E128E138E60
:102C5000148EE6EFF7E01382128284839583A683B5
:102C6000B78386E295E091838083E2E0F8E0138207
:102C7000128220E830E03583248380E490E097835B
:102C800086833187208793878287158A15861486E5
:102C90001786168681E0848B2FEF3FEF338B228BD4
:102CA000318B208B868B178A118E108E88E395E0EE
:102CB000918380838FEF848F80A3868F858F84E0BC
:102CC000878F0895EF920F931F93CF93DF93E801BF
:102CD00047FD02C034E001C034E1E42F440FFF0B94
:102CE000F7FF03C0F195E195F109E32E022F2E2F96
:102CF000AE010E948216CE01DF91CF911F910F91FC
:102D0000EF9008954F925F926F927F929F92AF9251
:102D1000BF92CF92DF92EF92FF920F931F93CF93C8
:102D2000DF93CDB7DEB729970FB6F894DEBF0FBE9D
:102D3000CDBF6A01122FB02E2BE3201720F0FF2405
:102D4000F394F00E02C0BCE3FB2E0F2D27E0AE0182
:102D50004F5F5F4F0E941018AC018981982F9970C6
:102D6000913031F0E1FC06C0E0FE06C090E205C003
:102D70009DE203C09BE201C090E0EE2DE07183FF75
:102D80003CC0911102C083E001C084E0811718F4B7
:102D9000212F281B01C020E0E1110BC0F601822F7A
:102DA00030E2882319F031938150FBCFC20ED11C41
:102DB00020E0992329F0D6019C93F60131966F010A
:102DC000C6010396E2FE0AC03EE4D6013C9341E40C
:102DD00011964C93119712963C9306C03EE6F6016D
:102DE000308341E641833283FC01322F40E23323BA
:102DF00009F442C041933150FACF82FF44C091118F
:102E000002C083E001C084E0811718F4212F281B41
:102E100001C020E0E1110BC0F601822F30E28823CF
:102E200019F031938150FBCFC20ED11C20E09923C1
:102E300029F0D6019C93F60131966F01C6010396E5
:102E4000E2FE0BC039E4D6013C933EE411963C937C
:102E5000119736E412963C9307C039E6F6013083A9
:102E60003EE6318336E63283FC01322F40E23323E3
:102E700019F041933150FBCFFC01E20FF11D10829C
:102E80008EEF9FEFB7C0F1E0911101C0F0E06F2F1E
:102E900070E01416150624F49A012F5F3F4F02C00C
:102EA00021E030E0260F371FBB2029F06B2D70E0AA
:102EB0006F5F7F4F02C060E070E0260F371F612F09
:102EC00070E0261737071CF4121B212F01C020E0E9
:102ED0003E2D387159F4D601322F60E2332319F0B8
:102EE0006D933150FBCFC20ED11C20E0FF2331F097
:102EF000D6019C93B6016F5F7F4F6B01E1110BC050
:102F0000F601922F30E3992319F031939150FBCFC2
:102F1000C20ED11C20E09F2D940F3A81782F707142
:102F2000A72E84FF03C0313309F49150191624F4FD
:102F3000993018F098E001C091E0E42F852F57FFF9
:102F400002C0E0E080E06E2F782FE0E0F0E0AEE23B
:102F50009A2E3A01691A71082A01461A570A0B2D4E
:102F600010E01195019511096F3F8FEF780729F453
:102F7000D6019C92C60101966C014617570784F052
:102F8000661677066CF47F01E40CF51CA1E0B0E056
:102F9000AC0FBD1FEA0EFB1ED7011196BC9002C0FC
:102FA00090E3B92E615071093196C60101967C01FA
:102FB0006017710724F0D601BC926C01D5CF64175D
:102FC000750741F4363320F4353321F4A11002C0E3
:102FD00081E3B82EF601B082F701822F90E28823B8
:102FE00019F091938150FBCFF701E20FF11D108290
:102FF00080E090E029960FB6F894DEBF0FBECDBFFB
:10300000DF91CF911F910F91FF90EF90DF90CF90C4
:10301000BF90AF909F907F906F905F904F9008957A
:10302000283008F027E03327DA01990F311D87FD9A
:10303000916000966105710539F432602E5F3D9311
:1030400030E32A95E1F708959F3F30F0803871050D
:10305000610509F03C5F3C5F3D93913008F080686A
:10306000911DDF93CF931F930F93FF92EF92192F30
:10307000987F9695E92F96959695E90FFF27EE5341
:10308000FF4F99273327EE24FF24A701E70105907E
:103090000894079428F4360FE71EF81E491F511DA7
:1030A000660F771F881F991F0694A1F70590079454
:1030B00028F4E70EF81E491F561FC11D770F881F01
:1030C000991F661F0694A1F70590079428F4F80E3F
:1030D000491F561FC71FD11D880F991F661F771FD5
:1030E0000694A1F70590079420F4490F561FC71FB7
:1030F000D81F990F661F771F881F0694A9F7849120
:103100001095177041F0D695C79557954795F79448
:10311000E7941A95C1F7E8E6F0E0689415901591E8
:1031200035916591959105907FE27395E118F10ACB
:10313000430B560BC90BD009C0F7E10CF11E431F1E
:10314000561FC91FD01D7EF4703311F48A95E6CF47
:10315000E894015030F0080F0AF40027021708F431
:10316000202F2395022F7A3328F079E37D932A9537
:10317000E9F710C07D932A9589F60694979567958F
:10318000379517951794E118F10A430B560BC90BA5
:10319000D00998F023957E9173957A3308F070E307
:1031A0007C932013B8F77E9170617D9330F0839506
:1031B00071E37D9370E32A95E1F71124EF90FF907E
:1031C0000F911F91CF91DF91992787FD90950895D9
:1031D0000E94FC180C94AE190E94A71958F00E9486
:1031E000A01940F029F45F3F29F00C949719511170
:1031F0000C94E2190C949D190E94BF1968F399234D
:10320000B1F3552391F3951B550BBB27AA276217E2
:103210007307840738F09F5F5F4F220F331F441FEF
:10322000AA1FA9F335D00E2E3AF0E0E832D0915023
:103230005040E695001CCAF72BD0FE2F29D0660F10
:10324000771F881FBB1F261737074807AB07B0E853
:1032500009F0BB0B802DBF01FF2793585F4F3AF059
:103260009E3F510578F00C9497190C94E2195F3F3A
:10327000E4F3983ED4F3869577956795B795F795DF
:103280009F5FC9F7880F911D9695879597F90895C7
:10329000E1E0660F771F881FBB1F62177307840763
:1032A000BA0720F0621B730B840BBA0BEE1F88F772
:1032B000E0950895E89409C097FB3EF490958095B9
:1032C000709561957F4F8F4F9F4F9923A9F0F92FEC
:1032D00096E9BB279395F695879577956795B7956A
:1032E000F111F8CFFAF4BB0F11F460FF1BC06F5F50
:1032F0007F4F8F4F9F4F16C0882311F096E911C062
:10330000772321F09EE8872F762F05C0662371F082
:1033100096E8862F70E060E02AF09A95660F771F96
:10332000881FDAF7880F9695879597F9089597F98A
:103330009F6780E870E060E008959FEF80EC08955B
:1033400000240A9416161706180609060895002484
:103350000A9412161306140605060895092E0394FE
:10336000000C11F4882352F0BB0F40F4BF2B11F472
:1033700060FF04C06F5F7F4F8F4F9F4F089557FDD1
:103380009058440F551F59F05F3F71F04795880FD3
:1033900097FB991F61F09F3F79F08795089512166A
:1033A00013061406551FF2CF4695F1DF08C0161616
:1033B00017061806991FF1CF8695710561050894C7
:1033C0000895E894BB2766277727CB0197F90895DE
:1033D0000E94FB190C94AE190E94A01938F00E94AB
:1033E000A71920F0952311F00C9497190C949D19AE
:1033F00011240C94E2190E94BF1970F3959FC1F338
:10340000950F50E0551F629FF001729FBB27F00D92
:10341000B11D639FAA27F00DB11DAA1F649F6627E7
:10342000B00DA11D661F829F2227B00DA11D621F36
:10343000739FB00DA11D621F839FA00D611D221FF0
:10344000749F3327A00D611D231F849F600D211DD4
:10345000822F762F6A2F11249F5750409AF0F1F057
:1034600088234AF0EE0FFF1FBB1F661F771F881FC0
:1034700091505040A9F79E3F510580F00C94971948
:103480000C94E2195F3FE4F3983ED4F38695779568
:103490006795B795F795E7959F5FC1F7FE2B880F66
:1034A000911D9695879597F90895A1E21A2EAA1B6A
:1034B000BB1BFD010DC0AA1FBB1FEE1FFF1FA217E4
:1034C000B307E407F50720F0A21BB30BE40BF50BE1
:1034D000661F771F881F991F1A9469F7609570956A
:1034E000809590959B01AC01BD01CF0108950E948C
:1034F000881AA59F900DB49F900DA49F800D911DDB
:1035000011240895EE0FFF1F0590F491E02D09940A
:10351000A29FB001B39FC001A39F700D811D112414
:10352000911DB29F700D811D1124911D089581E0A0
:0C35300090E0F8940C949C1AF894FFCFE3
:10353C00000000000000000000000000000000007F
:10354C00000000000000000000000000000000006F
:10355C00000000000000000000000000000000005F
:10356C0000000000000000000000000000000080CF
:10357C00808000000000000000000000000000003F
:10358C00008080C0C00000000000000000000000AF
:10359C00000000000000000000000000000000001F
:1035AC00000000000000000000000000000000000F
:1035BC0000000000000000000000000000000000FF
:1035CC000000000080C0E0F0F8FCF8E00000000013
:1035DC00000000000000000000000000008080805F
:1035EC00808000808000000000808080808000FF50
:1035FC00FFFF0000000080808080000080800000C1
:10360C0080FFFF8080008080008080808000808030
:10361C000000000000808000008C8E84000080F888
:10362C00F8F880000000000000000000000000001E
:10363C00F0F0F0F0F0F0F0F0F0F0F0F0E0E0C0803E
:10364C0000E0FCFEFFFFFF7FFFFFFFFFFF0000001D
:10365C000000000000000000000000FEFFC7010198
:10366C00010183FFFF00007CFEC70101010183FF04
:10367C00FFFF0038FEC78301010183C7FFFF000075
:10368C0001FFFF010100FFFF0701010100007FFFA7
:10369C0080000000FFFF7F0000FFFFFF000001FF24
:1036AC00FFFF01000000000000000000000000000F
:1036BC00030F3F7F7FFFFFFFFFFFFFFFE7C7C78FB2
:1036CC008F9FBFFFFFC3C0F0FFFFFFFFFFFCFCFCA1
:1036DC00FCFCFCFCFCF8F8F0F0E0C0000103030378
:1036EC0003030103030000000001030303030101B2
:1036FC0003010000000103030303010103030000A5
:10370C0000030300000003030000000000000001A0
:10371C000303030303010000000103010000000385
:10372C000301000000000000000000000000000089
:10373C0000000080C0E0F0F9FFFFFFFFFF3F1F0F0C
:10374C0087C7F7FFFF1F1F3DFCF8F8F8F87C7DFFDB
:10375C00FFFFFFFFFFFFFF7F3F0F07003030000030
:10376C00000000000000000000000000000000004D
:10377C0000000000FEFEFC00000000000000000045
:10378C0000000000000000000000000000E0C0008D
:10379C0000000000000000000000303000000000BD
:1037AC00000000000000000000000000000000000D
:1037BC0000C0FEFFFFFFFFFFFFFFFFFF7F7F3F1FEC
:1037CC000F071F7FFFFFF8F8FFFFFFFFFFFEF8E07A
:1037DC00000000010000000000000000FEFE0000E0
:1037EC0000FCFEFC0C06060EFCF80000F0F81C0EAB
:1037FC000606060CFFFFFF0000FEFE00000000FCAA
:10380C00FEFC00183C7E66E6CE84000006FFFF0638
:10381C0006FCFEFC0C0606060000FEFE0000C0F8CE
:10382C00FC4E4646464E7C7840183C76E6CECC8024
:10383C00000000000000000000000000000000007C
:10384C000000000001070F1F1F3F3F3F3F1F0F03EA
:10385C000000000000000000000000000F0F00003E
:10386C00000F0F0F000000000F0F000003070E0CDD
:10387C0018180C060F0F0F0000010F0E0C180C0F70
:10388C00070100040E0C180C0F070000000F0F00AE
:10389C00000F0F0F0000000000000F0F00000007CA
:1038AC00070C0C181C0C060600040E0C180C0F0749
:1038BC0000000000000000000000000000000000FC
:1038CC0000000000000000000000000000000000EC
:1038DC0000000000000000000000000000000000DC
:1038EC0000000000000000000000000000000000CC
:1038FC0000000000000000000000000000000000BC
:10390C0000000000000000000000000000000000AB
:10391C00000000000000000000000000000000009B
:10392C00000000000000000000000000000000008B
:10393C00000103070F1F3F7F0080C0E0F0F8FCFE82
:10394C0000000000D4119E1057101B128810661036
:10395C007A10000000002F0DFF0C5F0DD90CF70C36
:10396C00E80CDA0C0000000029099E105F0D5E0DBA
:10397C005F06FC0BF50BCD0BE90BDD0BFD0BCC0B3C
:10398C00FE06FD06A9030305F30AD50A5E0AFF0924
:10399C005061636B65742D004D6F6E69746F7200AE
:1039AC00436F7079726967687420286329203230FC
:1039BC0031380045646761722D4A6965000D0A0053
:00000001FF
