:100000000C945F070C943B140C9414140C94870705
:100010000C9487070C9487070C9487070C94870728
:100020000C9487070C9487070C9487070C94870718
:100030000C9487070C9487070C9487070C94870708
:100040000C94CA130C9487070C94E2120C94BC1203
:100050000C9487070C9487070C9487070C948707E8
:100060000C9462140C94870700407A10F35A00A095
:10007000724E18090010A5D4E80000E87648170071
:1000800000E40B54020000CA9A3B000000E1F505B1
:10009000000080969800000040420F000000A086FB
:1000A00001000000102700000000E803000000002D
:1000B0006400000000000A000000000001000000D1
:1000C00000002C76D888DC674F0823DFC1DFAE59EB
:1000D000E1B1B796E5E3E453C63AE651997696E87E
:1000E000E6C28426EB898C9B62ED407C6FFCEFBC02
:1000F0009C9F40F2BAA56FA5F490055A2AF75C932D
:100100006B6CF9676DC11BFCE0E40D47FEF520E662
:10011000B500D0ED902E0300943577050080841E45
:10012000080000204E0A000000C80C333333330FA0
:10013000986E12831141EF8D2114893BE65516CF3D
:10014000FEE6DB18D1844B381BF77C1D901DA4BB49
:10015000E424203284725E228100C9F124ECA1E5FE
:100160003D270000000023002600290000000000B9
:10017000003E5B4F5B3E3E6B4F6B3E1C3E7C3E1C2D
:10018000183C7E3C181C577D571C1C5E7F5E1C0073
:10019000183C1800FFE7C3E7FF0018241800FFE72A
:1001A000DBE7FF30483A060E2629792926407F05ED
:1001B0000507407F05253F5A3CE73C5A7F3E1C1C03
:1001C00008081C1C3E7F14227F22145F5F005F5FC3
:1001D00006097F017F006689956A606060606094AF
:1001E000A2FFA29408047E040810207E20100808B4
:1001F0002A1C08081C2A08081E101010100C1E0CBF
:100200001E0C30383E3830060E3E0E060000000050
:100210000000005F00000007000700147F147F1437
:10022000242A7F2A1223130864623649562050007C
:1002300008070300001C2241000041221C002A1C68
:100240007F1C2A08083E0808008070300008080853
:100250000808000060600020100804023E51494573
:100260003E00427F400072494949462141494D3391
:100270001814127F1027454545393C4A49493141F8
:10028000211109073649494936464949291E0000C6
:10029000140000004034000000081422411414141B
:1002A0001414004122140802015909063E415D5907
:1002B0004E7C1211127C7F494949363E4141412210
:1002C0007F4141413E7F494949417F090909013E3A
:1002D000414151737F0808087F00417F4100204061
:1002E000413F017F081422417F404040407F021C73
:1002F000027F7F0408107F3E4141413E7F0909098A
:10030000063E4151215E7F09192946264949493255
:1003100003017F01033F4040403F1F2040201F3F1B
:100320004038403F631408146303047804036159A0
:10033000494D43007F4141410204081020004141E2
:10034000417F04020102044040404040000307088E
:100350000020545478407F2844443838444444288A
:10036000384444287F385454541800087E09021831
:10037000A4A49C787F0804047800447D40002040B9
:10038000403D007F1028440000417F40007C0478FD
:1003900004787C080404783844444438FC18242445
:1003A0001818242418FC7C080404084854545424C5
:1003B00004043F44243C4040207C1C2040201C3C42
:1003C0004030403C44281028444C9090907C446439
:1003D000544C4400083641000000770000004136CC
:1003E000080002010204023C2623263C1EA1A16152
:1003F000123A4040207A3854545559215555794184
:100400002254547842215554784020545579400C58
:100410001E5272123955555559395454545939553B
:100420005454580000457C410002457D420001457E
:100430007C407D1211127DF0282528F07C54554512
:10044000002054547C547C0A097F4932494949327E
:100450003A4444443A324A4848303A4141217A3A8F
:1004600042402078009DA0A07D3D4242423D3D405B
:1004700040403D3C24FF2424487E4943662B2FFC0A
:100480002F2BFF0929F620C0887E090320545479B8
:10049000410000447D413048484A32384040227A89
:1004A000007A0A0A727D0D19317D2629292F282606
:1004B0002929292630484D4020380808080808080E
:1004C0000808382F10C8ACBA2F102834FA00007B67
:1004D000000008142A142222142A1408550055007A
:1004E00055AA55AA55AAFF55FF55FF000000FF0069
:1004F000101010FF00141414FF001010FF00FF1064
:1005000010F010F0141414FC001414F700FF000095
:10051000FF00FF1414F404FC141417101F10101F14
:10052000101F1414141F00101010F0000000001F02
:10053000101010101F10101010F010000000FF100D
:100540001010101010101010FF10000000FF140009
:1005500000FF00FF00001F10170000FC04F414143B
:100560001710171414F404F40000FF00F714141407
:1005700014141414F700F7141414171410101F1087
:100580001F141414F4141010F010F000001F101FAA
:100590000000001F14000000FC140000F010F01018
:1005A00010FF10FF141414FF141010101F0000008F
:1005B00000F010FFFFFFFFFFF0F0F0F0F0FFFFFF93
:1005C0000000000000FFFF0F0F0F0F0F38444438EA
:1005D00044FC4A4A4A347E02020606027E027E0239
:1005E00063554941633844443C04407E201E200644
:1005F000027E020299A5E7A5991C2A492A1C4C7281
:1006000001724C304A4D4D303048784830BC625A07
:10061000463D3E494949007E0101017E2A2A2A2A97
:100620002A44445F444440514A444040444A514073
:100630000000FF0103E080FF000008086B6B083634
:1006400012362436060F090F0600001818000000A5
:100650001010003040FF0101001F01011E00191D94
:100660001712003C3C3C3C00000000000000000071
:10067000240027002A000102040810204080010203
:1006800004081020010204081020000000002500CA
:1006900028002B00040404040404040402020202DF
:1006A0000202030303030303000000080002010029
:1006B000000304070000000000000000000000002C
:1006C000000000000000000000000000000000002A
:1006D000000000000000000000000000000000001A
:1006E000000000000000000000000000000000000A
:1006F00000000000000000000000000000000000FA
:1007000000000000000000000000000000000000E9
:1007100000000000000000000000000000000000D9
:1007200000000000000000000000000000000000C9
:1007300000000000000000000000000000000000B9
:1007400000000000000000000000000000000000A9
:100750000000000000000000000000000000000099
:100760000000000000000000000000000000000089
:100770000000000000000000000000000000000079
:100780000000000000000000000000000000000069
:100790000000000000000000000000000000000059
:1007A0000000000000000000000000000000000049
:1007B0000000000000000000000000000000000039
:1007C0000000000000000000000000000000000029
:1007D0000000000000000000000000000000000019
:1007E0000000000000000000000000000000000009
:1007F00000000000000000000000000000000000F9
:1008000000000000000000000000000000000000E8
:1008100000000000000000000000000000000000D8
:1008200000000000000000000000000000000000C8
:1008300000000000000000000000000000000000B8
:1008400000000000000000000000000000000000A8
:1008500000000000000000000000000C000000008C
:1008600000000000000000000000000C000000007C
:1008700000000000000000000000000C000000006C
:1008800000000000000000000000000C000000005C
:100890000000000000000000000000000000000058
:1008A0000000000000000000000000000000000048
:1008B0000000000000000000000000000000000038
:1008C0000000000000000000000000000000000028
:1008D00000000000000000000000001E00000000FA
:1008E00000000000000000000000001E00000000EA
:1008F00000000000000000000000003F00000000B9
:1009000000000000000000000000002100000000C6
:1009100000000000000000000000002100000000B6
:1009200000000000000000000000002100000000A6
:100930000000000000000000000000210000000096
:100940000000000000000000000000210000000086
:100950000000000000000000000000210000000076
:100960000000000000000000000000210000000066
:100970000000000000000000000000210000000056
:100980000000000000000000000000210000000046
:100990000000000000000000000000210000000036
:1009A0000000000000000000000000210000000026
:1009B0000000000000000000000000210000000016
:1009C0000000000000000000000000210000000006
:1009D00000000000000000000000002100000000F6
:1009E00000000000000000000000002100000000E6
:1009F00000000000000000000000002100000000D6
:100A000000000000000000000000002100000000C5
:100A100000000000000000000000002100000000B5
:100A200000000000000000000000002100000000A5
:100A30000000000000000000000000210000000095
:100A40000000000000000000000000210000000085
:100A50000000000000000000000000210000000075
:100A60000000000000000000000000210000000065
:100A70000000000000000000000000210000000055
:100A80000000000000000000000000210000000045
:100A90000000000000000000000000210000000035
:100AA00000000000000000000000003F0000000007
:100AB000000000000000000000000000FFFFFFFF3A
:100AC000FFFFFFFFFFFFFFFFFFFFFFFFFFFFFFFF36
:100AD000FFFFFFFFFFFFFFFFFFFFFFFFFFFFFFFF26
:100AE000FFFFFFFFFFFFFFFFFFFFFFFFFFFFFFFF16
:100AF000FFFFFFFFFFFFFFFFFFFFFFFFFC003FF8CF
:100B0000FFE3FC70001C7F0007F0FF1FF8001FF0E0
:100B10007FE3FC70001C7E0003F07F1FF8001FE0E5
:100B20003FE3FC70001C7E0003F03F1FF8FF1FE254
:100B30003FE3FC7FC7FC7E3FE3F01F1FF8FF1FC2AF
:100B40001FE3FC7FC7FC7E3FE3F10F1FF8FFFFC7E9
:100B50001FE3FC7FC7FC7E3FE3F1871FF8FFFF80A8
:100B60000FE3FC7FC7FC7E3FE3F1C31FF8FF1F00CC
:100B700007E3FC7FC7FC7E3FE3F1E11FF8FF1F00A6
:100B800007E3FC7FC7FC7E3FE3F1F01FF8001E1F68
:100B9000C3E0007FC7FC7E0003F1F81FF8001E3F92
:100BA000E3E0007FC7FC7E0003F1FC1FFC003E3F3A
:100BB000E3F000FFC7FC7F0007F1FE1FFFFFFFFF10
:100BC000FFFFFFFFFFFFFFFFFFFFFFFFFFFFFFFF35
:100BD000FFFFFFFFFFFFFFFFFFFFFFFFFFFFFFFF25
:100BE000FFFFFFFFFFFFFFFFFFFFFFFFFFFFFFFF15
:100BF000FFFFFFFFFFFFFFFFFFFFFFFF0000000001
:100C000000000000000000000000000000000000E4
:100C1000000000000000000000000000018000183B
:100C200000000000000000000000000003C0003CC5
:100C3000000001E030C000000000000007E0007E7E
:100C40000000033830C00000000000000FE0007F0B
:100C500000F3061818C00000000000001FF000FF9D
:100C6000819B061818C01FF03C3873FE1FF000FF70
:100C7000830F06181C801FF03C1CE3FE3FF801FFA9
:100C8000C30606300D8018307E0FC3003FFC03FF03
:100C9000C30606F00D8F9FF0660783FE7FFC03FFFF
:100CA000E30606180D0F9FF0FF0303FE7FFE07FF0C
:100CB000E306060C070019C1FF8300067FFE07FF4D
:100CC000E30E060C060018E1C38303FEFFFC03FFDE
:100CD000F19E060C0600187381C303FEFFF8F1FFB6
:100CE000F0F3860C0600000000000000FFF9F9FF99
:100CF000F00007180600000000000000FFF9F9FFEF
:100D0000F00007F006000000000000000001F800FD
:100D10000000000000000000000000000001F800DA
:100D20000000000000000000000000000000F000D3
:100D300000000000000000000000000000000000B3
:100D4000000000000000000000000000000108009A
:100D50003FC1FF3FF3FE3FE7FE7FE1FF0001F800E8
:100D60003FE1FF3FF3FE3FE7FE7FE1FF0003FC00B2
:100D70003071800303003060606061830007FE0013
:100D80003031F80303F03000606061FF0007FE00BF
:100D90003031F80303F03000606061FF000FFF00A6
:100DA00030718003030030606060619C001FFF8031
:100DB0003FE1FF0303FE3FE0607FE18E003FFFC0A5
:100DC0003FC1FF0303FE3FE0607FE187003FFFC0BC
:100DD000000000000000000000000000007FFFE0B5
:100DE000000000000000000000000000007FFFE0A5
:100DF000000000000000000000000000001FFF8055
:100E00000000000000000000000000000003FC00E3
:100E100000000000000000000000000000000000D2
:100E200000000000000000000000000000000000C2
:100E300000000000000000000000000000000000B2
:100E400000000000000000000000000000000000A2
:100E50000000000000000000000000000000000092
:100E6000000000000000000000000000E3BB3800AC
:100E7000000000000000000000000000A2A9200007
:100E8000000000000000000000000000A2A93800DF
:100E9000000000000000000000000000A2A90800FF
:100EA000000000000000000000000000EBBBB800E4
:100EB0000000000000000000000000008C20112451
:100EC0001FBECFEFD8E0DEBFCDBF15E0A0E0B1E0A0
:100ED000E4E4FDE402C005900D92A23AB107D9F70F
:100EE00027E0A2EAB5E001C01D92AB3DB207E1F7F1
:100EF00017E0CFE5D7E004C02197FE010E949526B8
:100F0000CE35D107C9F70E94E5180C94A0260C94A1
:100F10000000FC01538D448D252F30E0842F90E09C
:100F2000821B930B541710F0CF96089501970895E4
:100F3000FC01918D828D981761F0828DDF01A80FE1
:100F4000B11D5D968C91928D9F5F9F73928F90E003
:100F500008958FEF9FEF0895FC01918D828D981772
:100F600031F0828DE80FF11D858D90E008958FEFAF
:100F70009FEF0895FC01918D228D892F90E0805C78
:100F80009F4F821B91098F739927089583EF96E0F5
:100F90000E94BA0721E0892B09F420E0822F0895EE
:100FA000FC01848DDF01A80FB11DA35ABF4F2C9106
:100FB000848D90E001968F739927848FA689B789D5
:100FC0002C93A089B1898C9180648C93938D848DAE
:100FD000981306C00288F389E02D80818F7D80837D
:100FE0000895EF92FF920F931F93CF93DF93EC013D
:100FF00081E0888F9B8D8C8D981305C0E889F989D5
:10100000808185FD24C0F62E0B8D10E00F5F1F4FF1
:101010000F731127E02E8C8DE8120CC00FB607FC61
:10102000FACFE889F989808185FFF5CFCE010E944A
:10103000D007F1CF8B8DFE01E80FF11DE35AFF4F72
:10104000F0820B8FEA89FB898081806207C0EE897C
:10105000FF896083E889F98980818064808381E0E9
:1010600090E0DF91CF911F910F91FF90EF90089545
:10107000CF93DF93EC01888D8823C9F0EA89FB893F
:10108000808185FD05C0A889B9898C9186FD0FC036
:101090000FB607FCF5CF808185FFF2CFA889B9890B
:1010A0008C9185FFEDCFCE010E94D007E7CFDF9175
:1010B000CF91089580E090E0892B29F00E94C60727
:1010C00081110C9400000895833081F028F4813060
:1010D00099F08230A1F008958730A9F08830B9F0F6
:1010E0008430D1F4809180008F7D03C08091800096
:1010F0008F7780938000089584B58F7702C084B580
:101100008F7D84BD08958091B0008F7703C080915A
:10111000B0008F7D8093B00008953FB7F894809120
:10112000EE059091EF05A091F005B091F10526B57F
:10113000A89B05C02F3F19F00196A11DB11D3FBF0F
:10114000BA2FA92F982F8827820F911DA11DB11D9D
:10115000BC01CD0142E0660F771F881F991F4A9599
:10116000D1F7089508950F931F93CF93DF93DC0178
:1011700055968C915597823071F0833009F181300A
:1011800009F08CC01496ED91FC911597E41BF50BBA
:10119000E21BF30B20C01496ED91FC911597CF0143
:1011A000861B970BBC01615071091696ED91FC915D
:1011B0001797CF01841B950BAC01421B530B6EC0DC
:1011C0001696ED91FC911797CF01861B970BBC01EA
:1011D00061507109FA0177FD1BC116968D919C91A2
:1011E0001797681779070CF013C1F7FF04C02E0F8B
:1011F0003F1FE0E0F0E014968D919C911597AF01B0
:10120000420F531F841795071CF49C012E1B3F0BA4
:10121000121613060CF0FCC0CB0177FD079643E0D5
:10122000959587954A95E1F79695982F88279795F4
:101230008795E80FF91FEC5FFE4F6770772781E015
:1012400090E001C0880F6A95EAF7482F0130110538
:1012500041F088F00230110509F0DAC02E0F3F1F6F
:1012600015C02E0F3F1FE217F30709F4D1C080818C
:10127000842B8193F8CF80952E0F3F1FE217F30741
:1012800009F4C6C0908198239193F8CFE217F30731
:1012900009F4BEC0808184278193F8CF77FDB8C060
:1012A00014968D919C911597681779070CF0B0C032
:1012B00057FF04C0240F351F40E050E016968D9173
:1012C0009C911797FA01E20FF31F8E179F071CF4EA
:1012D0009C01241B350B121613060CF099C0A22F8B
:1012E000842F86958695869590E8899F600D711D5F
:1012F0001124FB01EC5FFE4F4770A9F198E0941BAD
:10130000492F50E0EA01C05FDA4F8881291790F435
:10131000421B51092FEF30E002C0359527954A95C1
:10132000E2F782230130110541F068F00230110527
:1013300089F06EC00130110519F42081822B0CC098
:101340000130110520F480952081822305C00230F0
:10135000110531F4208182278083A91708F458C031
:10136000A91BE058FF4FA83048F10230110559F48D
:10137000EF018A2F988190959883C058DF4F88504D
:101380008830C0F730C081E00130110509F080E0FD
:101390008195EF019A2F8883C058DF4F985098307D
:1013A000D0F788EF8A0F86958695869590E8899F75
:1013B000E00DF11D1124E058FF4FA770AA2341F161
:1013C000B0E0A85FBA4F8C910130110529F038F0D8
:1013D00002301105D1F01CC09081892B18C0809576
:1013E0009081892314C088EF8A0F8695869586950B
:1013F00090E8899FE00DF11D1124E058FF4FA77080
:1014000039F0B0E0A85FBA4F8C9190818927808332
:10141000DF91CF911F910F9108950F931F93CF9359
:10142000DF93DC01FB0155968C915597823081F05A
:10143000833019F1813051F514968D919C91159757
:10144000BC01641B750BAB0141505109BF0181C048
:1014500014966D917C911597CB018E1B9F0BFC010F
:1014600016968D919C911797BC01641B750BAB016F
:1014700041505109E21BF30B09C016966D917C9106
:1014800017976E1B7F0B621B730B63C057FD1CC14C
:1014900016968D919C911797481759070CF014C117
:1014A000F7FF04C02E0F3F1FE0E0F0E014968D918F
:1014B0009C911597BF01620F731F861797071CF445
:1014C0009C012E1B3F0B121613060CF0FDC0CA0127
:1014D00057FD079663E0959587956A95E1F7969590
:1014E000982F882797958795E80FF91FEC5FFE4F97
:1014F0004770552781E090E001C0880F4A95EAF7D0
:10150000482F0130110541F088F00230110509F033
:10151000DBC02E0F3F1F15C02E0F3F1FE217F30732
:1015200009F4D2C08081842B8193F8CF80952E0F4F
:101530003F1FE217F30709F4C7C0908198239193E6
:10154000F8CFE217F30709F4BFC0808184278193A5
:10155000F8CF57FDB9C014968D919C9115974817F7
:1015600059070CF0B1C077FF04C0260F371F60E0A9
:1015700070E016968D919C911797FB01E20FF31F77
:101580008E179F071CF49C01261B370B121613069F
:101590000CF09AC0A22F862F86958695869590E8A6
:1015A000899F400D511D1124FA01EC5FFE4F6770B9
:1015B000A9F198E0961B492F50E0EA01C05FDA4F8D
:1015C0008881291790F4421B51092FEF30E002C0A7
:1015D000359527954A95E2F782230130110541F0B0
:1015E00068F00230110589F06FC00130110519F45F
:1015F0002081822B0CC00130110520F480952081C0
:10160000822305C00230110531F4208182278083B6
:10161000A91708F459C0A91BE058FF4FA83048F19A
:101620000230110559F4EF018A2F98819095988323
:10163000C058DF4F88508830C0F731C081E001309A
:10164000110509F080E08195EF019A2F8883C05839
:10165000DF4F98509830D0F788EF8A0F869586959F
:10166000869560E8869FE00DF11D1124E058FF4F3C
:10167000A770AA2349F1B0E0A85FBA4F8C9101305E
:10168000110529F038F002301105D9F01DC0908104
:10169000892B03C0809590818923808315C088EFB2
:1016A0008A0F86958695869570E8879FE00DF11DD7
:1016B0001124E058FF4FA77039F0B0E0A85FBA4F8F
:1016C0008C9190818927E9CFDF91CF911F910F9164
:1016D0000895FC0177FD9AC0808591856817790788
:1016E0000CF094C057FD92C0828593854817590726
:1016F0000CF08CC08589823009F07CC08481958192
:10170000DC01A61BB70BBD01615071098681978171
:10171000FC01E41BF50BAF01415051090AC08130B7
:1017200041F484819581841B950BAB01BC01615010
:1017300071092130310529F008F122303105E1F13C
:101740000895FA0157FD3796A3E0F595E795AA9518
:10175000E1F7F695FE2FEE27F795E7956E0F7F1FC1
:10176000FB01EC5FFE4F4770552781E090E001C020
:10177000880F4A95EAF79081892B3AC0FA0157FD04
:10178000379623E0F595E7952A95E1F7F695FE2F34
:10179000EE27F795E7956E0F7F1FFB01EC5FFE4F7D
:1017A0004770552781E090E001C0880F4A95EAF71D
:1017B0008095908189231CC0FA0157FD379683E0FC
:1017C000F595E7958A95E1F7F695FE2FEE27F795C3
:1017D000E7956E0F7F1FFB01EC5FFE4F47705527AB
:1017E00081E090E001C0880F4A95EAF7908189274F
:1017F00080830895833009F092CF86819781861B7C
:10180000970BBA01AC014150510993CF0895089547
:10181000FC016370658B84819581268137816130FD
:1018200039F0633029F091878087338722870895C4
:10183000318720879387828708952F923F924F9216
:101840005F926F927F928F929F92AF92BF92CF9250
:10185000DF92EF92FF920F931F93CF93DF93CDB759
:10186000DEB76C970FB6F894DEBF0FBECDBF9C8F6E
:101870008B8F5B011A011F830E833701C982DC0144
:1018800058964D915C9159974115510509F0E5C065
:1018900018968D919C911997681779070CF0CAC119
:1018A0001A968D919C911B97281639060CF0C2C18F
:1018B0008C2C912CFB0136E0C39EE00DF11D112410
:1018C000FB87EA871E161F060CF0B4C1C40133E083
:1018D000880F991F3A95E1F79D878C87820D931D9C
:1018E000181619060CF0A6C157968C91811103C0E9
:1018F000203B08F02F5FAB8DBC8DED91FC911197D3
:101900000284F385E02DCD012A8F09952A8DB5E05B
:101910002B9F90011124F5013596FF87EE87BB823E
:10192000AA822501A9014A195B09598B488BC1017B
:1019300008969B8B8A8BE889F989E40DF51DE4599B
:10194000FE4F9491988761013D822C82A885A0FF6B
:1019500013C0AB8DBC8DED91FC91B981B13031F4E8
:101960000484F585E02D2E813F8116C00684F7851D
:10197000E02DEE80FF801AC0EE81FF816E167F069B
:10198000F1F0AB8DBC8DED91FC91B981B13051F48A
:101990000484F585E02D9301A601B2018B8D9C8D09
:1019A00009950DC00684F785E02D7301840194012B
:1019B0004C815D816A817B818B8D9C8D0995E88549
:1019C000E695E887FFEFCF1ADF0A2C813D81280DCD
:1019D000391D3D832C834A895B89C416D50609F0DD
:1019E000B5CF5FEF451A550A8A819B81880D991DF5
:1019F0009B838A83AE85BF854A165B0609F09BCF21
:101A0000EE81FF816E167F0609F4F2C0EB8DFC8D2E
:101A1000A081B181F981F13079F4B5016B5F7F4F1D
:101A20005096ED91FC915197830128E030E0A1019F
:101A30008B8D9C8D0995DCC06A857B856819790939
:101A40001E96ED91FC911F9773010C851D859401E5
:101A5000A1018B8D9C8D0995CBC0FA013496949190
:101A6000329765917491291BCB01B7E02B9F800DB4
:101A7000911D1124FA01259134913B8B2A8BFC0195
:101A8000459154915B834A83FC013296C490319610
:101A900054915E87329614913196D4908981823028
:101AA00058F0612E012E000C7708AD2D0D2C000C86
:101AB000BB0BB987A88704C019861886612C712CC6
:101AC000AB8DBC8DED91FC9111970284F385E02DD7
:101AD000CD010995B9818B2E912C689CC001699C20
:101AE000900D789C900D1124FC01EA0DFB1DFD87E3
:101AF000EC871C82712C612CE12F110FFF0B9501DB
:101B00002E0F3F1F3B872A87AC0CB11CA5014E0F3F
:101B10005F1F5F8B4E8BC1018D0D911DD7FC9A9578
:101B2000998F888F4E85641608F062C0862D90E0EC
:101B300048855985480F591F489D9001499D300D92
:101B4000589D300D1124D901A20DB31DB98BA88B5E
:101B5000AA84BB844C845D84DC80BA85DB1AE88D62
:101B6000F98DE80FF91FFD8BEC8B8D2D8A0D2E89D9
:101B70003F89A216B306B9F1877061F48A819B810F
:101B80000196EA89FB89AA81BB81EA0FFB1F749049
:101B90009B838A8377FE20C0AB8DBC8DED91FC9139
:101BA000B981B13061F40484F585E02D2E813F8147
:101BB0004C895D89B5018B8D9C8D09950DC006847E
:101BC000F785E02DEE80FF808401940148895989D2
:101BD000B2018B8D9C8D0995770CEFEFAE1ABE0A82
:101BE000480C591CC2CF3C813C0D3C8363949ACF76
:101BF000AB8DBC8DED91FC9111970688F789E02D96
:101C0000CD016C960FB6F894DEBF0FBECDBFDF914D
:101C1000CF911F910F91FF90EF90DF90CF90BF90E9
:101C2000AF909F908F907F906F905F904F903F907C
:101C30002F9009946C960FB6F894DEBF0FBECDBFFF
:101C4000DF91CF911F910F91FF90EF90DF90CF9098
:101C5000BF90AF909F908F907F906F905F904F90CC
:101C60003F902F900895AF92BF92CF92EF92FF9244
:101C70000F931F93CF93DF93EC01262F888D998DBF
:101C8000009709F040C06A3059F41D861C862C89E3
:101C90008E859F8538E0239F800D911D112441C0C2
:101CA0006D3009F4AAC08E898823C1F03C898C85E7
:101CB0009D8546E0349F800D911D112448855985EE
:101CC000481759075CF41D861C868E859F8548E061
:101CD000349F800D911D11249F878E87EA88FB8891
:101CE000088919894E855F856C857D85CC88CE01F4
:101CF0000E941D0C2C898C859D8536E0239F800DCC
:101D0000911D112442C06A3079F41D861C862C89ED
:101D1000FC013696E4918E859F852E9F800D911D46
:101D200011249F878E8769C06D3009F466C0FC015D
:101D300034963491631708F460C03196E491E61745
:101D400008F45BC0FC013296A590B490462F50E099
:101D5000431B510937E0349FB001359F700D1124AA
:101D6000A60EB71EF501329634913196E4913323D5
:101D700011F0E1110DC0F5013496E4912C898C85A8
:101D80009D85E29F800D911D11249D878C8735C014
:101D9000F501359644915E89552311F16C89E32F45
:101DA000F0E0E40FF11D47FDFA956E9FD0016F9FA3
:101DB000B00D11244C855D854A0F5B1FE885F985C0
:101DC000E417F5076CF41D861C86FC013696E49139
:101DD0008E859F856E9F800D911D11249F878E8714
:101DE000EA88FB88088919894E855F856C857D8521
:101DF000CC88CE010E941D0CBECF81E090E0DF9127
:101E0000CF911F910F91FF90EF90CF90BF90AF9027
:101E100008956F927F928F929F92AF92BF92CF92CE
:101E2000DF92EF92FF920F931F93CF93DF93EC011A
:101E30004B015A0169013801E881F9810284F38577
:101E4000E02D0995E881F9810288F389E02D870169
:101E50009601A501B401CE010995E881F981A5019A
:101E6000460D571D415051090288F389E02D960116
:101E7000B401CE010995E881F9810088F189E02D4E
:101E80009301A501B401CE010995E881F981C80C3F
:101E9000D91CB601615071090088F189E02D9301C8
:101EA000A501CE010995E881F9810688F789E02D21
:101EB000CE01DF91CF911F910F91FF90EF90DF90B6
:101EC000CF90BF90AF909F908F907F906F9009942C
:101ED000CF92DF92EF92FF920F931F93CF93DF93F6
:101EE00000D000D000D0CDB7DEB76C01DC01ED91A1
:101EF000FC916217730789F4041715072CF4942FCB
:101F0000852FA801092F182F041B150B98012F5F8F
:101F10003F4F048CF58DE02D12C04017510709F595
:101F2000261737072CF4962F872FB901292F382F22
:101F3000261B370B2F5F3F4F068CF78DE02D870157
:101F4000C601099526960FB6F894DEBF0FBECDBF29
:101F5000DF91CF911F910F91FF90EF90DF90CF9085
:101F600008950284F385E02D2D833E834B835C83AB
:101F700069837A830995D601ED91FC910488F589EE
:101F8000E02D2D813E814B815C8169817A81C60182
:101F90000995D601ED91FC910688F789E02DC601DF
:101FA00026960FB6F894DEBF0FBECDBFDF91CF915E
:101FB0001F910F91FF90EF90DF90CF900994EF92D7
:101FC000FF920F931F93DC01ED91FC9111971A96EC
:101FD0000D911C911B9718962D913C91199700A07B
:101FE000F1A1E02D7B0140E050E060E070E0099558
:101FF0001F910F91FF90EF9008954F925F926F9213
:102000007F928F929F92AF92BF92CF92DF92EF9288
:10201000FF920F931F93CF93DF9300D0CDB7DEB71E
:102020006C015A0139014801DC01ED91FC910284F7
:10203000F385E02D69837A8309956981462E7A813B
:10204000572E640C751CD601ED91FC914614570473
:102050006CF40088F189E02D87019401A501B2019B
:10206000C6010995BFEF4B1A5B0AEDCF0688F789C9
:10207000E02DC6010F900F90DF91CF911F910F912E
:10208000FF90EF90DF90CF90BF90AF909F908F9098
:102090007F906F905F904F900994AF92BF92CF92D4
:1020A000DF92EF92FF920F931F93CF93DF9300D0B5
:1020B00000D0CDB7DEB75C016901DC01ED91FC9188
:1020C0000284F385E02D4B835C8369837A830995D1
:1020D000D501ED91FC9169817A819B012C0D3D1D0B
:1020E000215031090488F589E02D78014B815C810C
:1020F0008A01C5010995D501ED91FC910688F78902
:10210000E02DC5010F900F900F900F90DF91CF91B0
:102110001F910F91FF90EF90DF90CF90BF90AF9005
:102120000994AF92BF92CF92DF92EF92FF920F93FA
:102130001F93CF93DF9300D000D0CDB7DEB75C0103
:102140006901DC01ED91FC910284F385E02D4B8364
:102150005C8369837A830995D501ED91FC914B816C
:102160005C81C40ED51EB1E0CB1AD1080488F58974
:10217000E02D7801860169817A819B01C50109956D
:10218000D501ED91FC910688F789E02DC5010F90EE
:102190000F900F900F90DF91CF911F910F91FF90B3
:1021A000EF90DF90CF90BF90AF9009940895EF9299
:1021B000FF920F931F93DC01ED91FC9100A0F1A120
:1021C000E02D09951F910F91FF90EF9008950F93C7
:1021D0001F93DC01ED91FC91068CF78DE02D0995A4
:1021E0001F910F9108950F931F93DC01ED91FC91C6
:1021F000048CF58DE02D09951F910F910895DC0158
:10220000ED91FC910084F185E02D099408952F92C1
:102210003F924F925F926F927F928F929F92AF9276
:10222000BF92CF92DF92EF92FF920F931F93CF93C3
:10223000DF9300D01F92CDB7DEB74C017B836A835A
:102240006A01590117019801241B350B37FF03C0A0
:10225000319521953109C5014A815B81841B950B1C
:1022600097FF03C091958195910951E05983821799
:10227000930714F019820BC09A2D8B2D5801092F4A
:10228000182F9A818B81DB82CA82C92ED82E8A812F
:102290009B81A816B9065CF49C2D8D2D6801092F31
:1022A000182F9A818B81BB82AA82A92EB82E250174
:1022B000AA81BB814A1A5B0A38016C187D0877FE37
:1022C00003C0719461947108720157FE03C0BFEF9F
:1022D000EB1AFB0AF594E794C016D1061CF00FEF39
:1022E0001FEF1FC001E010E01CC0D401ED91FC9174
:1022F000B9810484F585E02D9101BB23C1F04A81A9
:102300005B81B601C4010995E618F708F7FE04C021
:10231000C00ED11EE40CF51CEA81FB813196FB83D3
:10232000EA834A815B81A416B506FCF604C0A601C7
:102330006A817B81E7CF0F900F900F90DF91CF9153
:102340001F910F91FF90EF90DF90CF90BF90AF90D3
:102350009F908F907F906F905F904F903F902F90C5
:10236000089585ED8093BC008091BC0084FDFCCF76
:102370001092CF0608954091C405262F30E0240F17
:10238000311D21323105DCF42091CF062430C9F40F
:10239000FC0180E090E0861758F43091C40521914B
:1023A000DC01AE55BA4FA30FB11D2C930196F3CFAC
:1023B0008091C405680F6093C40580E0089581E0B2
:1023C000089582E00895089581E090E03091F3054A
:1023D0002091F205321710F480E090E091958195FC
:1023E000910908958091F3059091F205891730F4D1
:1023F0008F5F8093F30580E090E008958FEF9FEF6B
:1024000008958091F20590E02091F305821B9109D7
:102410000895CF92DF92EF92FF920F931F93CF9385
:10242000DF937C01262F972F8A018091D006882385
:1024300091F0C62FD72F6E01C40ED51ECC15DD0529
:1024400071F06991D701ED91FC910190F081E02D3F
:10245000C7010995F3CF642F822F0E94BB11C801D9
:10246000DF91CF911F910F91FF90EF90DF90CF9070
:102470000895CF93DF931F92CDB7DEB76983209184
:10248000D0062223D1F02091F206203240F021E044
:1024900030E0FC013383228380E090E015C080911E
:1024A000D106E82FF0E0EE52F94F998190838F5FCB
:1024B0008093D1068093F20605C061E0CE010196BB
:1024C0000E94BB1181E090E00F90DF91CF910895C1
:1024D000089580E090E00895CF93DF93FC0121857B
:1024E00030E0F901E855F94F8491F901EA58F94FC4
:1024F000D491F901EC56F94FC491CC2379F08111B4
:102500000E946408EC2FF0E0EE0FFF1FEE59FE4F23
:10251000A591B491EC91ED2381E009F480E0817004
:10252000DF91CF9108958091F8059091F905A091E0
:10253000FA05B091FB050196A11DB11D8093F80528
:102540009093F905A093FA05B093FB058091F405EB
:102550009091F505A091F605B091F7050196A11DA2
:10256000B11D8093F4059093F505A093F605B09303
:10257000F70508950E949B261F920F920FB60F92A7
:1025800011242F933F934F935F936F937F938F9378
:102590009F93AF93BF93EF93FF9383EF96E00E94D7
:1025A000D007FF91EF91BF91AF919F918F917F9154
:1025B0006F915F914F913F912F910F900FBE0F90B0
:1025C0001F9018951F920F920FB60F9211242F9300
:1025D0008F939F93EF93FF93E0910307F09104078C
:1025E0008081E0910907F0910A0782FD12C0908175
:1025F00080910C078F5F8F7320910D07821751F028
:10260000E0910C07F0E0ED50F94F958F80930C07A7
:1026100001C08081FF91EF919F918F912F910F9039
:102620000FBE0F901F9018951F93CF93DF93282F05
:1026300030E0F901E855F94F8491F901EA58F94F72
:10264000D491F901EC56F94FC491CC23C9F0162F5F
:1026500081110E946408EC2FF0E0EE0FFF1FE65797
:10266000F94FA591B4918FB7F894111105C09C91C1
:10267000ED2FE095E92302C0EC91ED2BEC938FBF99
:10268000DF91CF911F910895CF93DF9390E0FC01EC
:10269000EA58F94F2491FC01EC56F94F84918823B4
:1026A00061F190E0880F991FFC01E459F94FC59141
:1026B000D491FC01E657F94FA591B491611109C07D
:1026C0009FB7F8948881209582238883EC912E23EC
:1026D0000BC0623061F49FB7F8943881822F8095E7
:1026E00083238883EC912E2B2C939FBF06C08FB73A
:1026F000F894E8812E2B28838FBFDF91CF91089526
:10270000862F642F0C9444138F929F92AF92BF92A6
:10271000CF92DF92EF92FF926B017C010E948D08B5
:102720004B015C01C114D104E104F104F1F00E94F9
:102730008D08DC01CB0188199909AA09BB09883EDB
:102740009340A105B10570F321E0C21AD108E10858
:10275000F10888EE880E83E0981EA11CB11CC114FC
:10276000D104E104F10419F7DDCFFF90EF90DF9081
:10277000CF90BF90AF909F908F9008952FB7F8940F
:102780006091EA057091EB058091EC059091ED0563
:102790002FBF08951F920F920FB60F9211242F93FF
:1027A0003F938F939F93AF93BF938091EA0590914E
:1027B000EB05A091EC05B091ED053091E90523E022
:1027C000230F2D3720F40196A11DB11D05C026E869
:1027D000230F0296A11DB11D2093E9058093EA0500
:1027E0009093EB05A093EC05B093ED058091EE0579
:1027F0009091EF05A091F005B091F1050196A11D12
:10280000B11D8093EE059093EF05A093F005B09372
:10281000F105BF91AF919F918F913F912F910F90B3
:102820000FBE0F901F9018951F920F920FB60F9228
:1028300011242F933F934F935F936F937F938F93C5
:102840009F93AF93BF93EF93FF93E0910201F091B9
:1028500003010995FF91EF91BF91AF919F918F91E6
:102860007F916F915F914F913F912F910F900FBE8C
:102870000F901F9018951F920F920FB60F92112470
:102880002F933F934F935F936F937F938F939F9378
:10289000AF93BF93EF93FF93E0910001F09101019B
:1028A0000995FF91EF91BF91AF919F918F917F918A
:1028B0006F915F914F913F912F910F900FBE0F90AD
:1028C0001F9018951F920F920FB60F9211242F93FD
:1028D0003F934F935F936F937F938F939F93AF93A8
:1028E000BF93EF93FF938091B900887F803609F4FE
:1028F0009CC068F5883209F45BC090F4803109F41B
:1029000054C038F4882309F4F6C0883009F44DC067
:10291000F6C0883109F44CC0803209F45DC0EFC0C4
:10292000803409F468C048F4803309F455C0883312
:1029300009F0E5C08093CD06D8C0803509F44FC0BA
:10294000883509F45DC0883409F0D9C0D6C088390B
:1029500009F4C7C0A8F4883709F467C038F488368A
:1029600009F463C0803709F460C0C9C0883809F42D
:10297000B8C0803909F45FC0803809F0C0C05BC0BE
:10298000803B09F486C038F4803A09F466C0883A7E
:1029900009F47FC0B4C0803C09F4A7C0883C09F4A6
:1029A000A4C0883B09F48AC0AAC08091AA0610C0BE
:1029B0009091CC068091CB06981770F5E091CC06EB
:1029C00081E08E0F8093CC06F0E0E555F94F8081D1
:1029D0008093BB0085EC86C08093CD068EC0E091CD
:1029E000CC0681E08E0F8093CC068091BB00F0E096
:1029F000E555F94F80839091CC068091CB066EC04F
:102A0000E091CC0681E08E0F8093CC068091BB00D4
:102A1000F0E0E555F94F80838091CE0681116DC0BD
:102A200081E08093A90684EA61C083E08093CF06A9
:102A30001092E805CFCF8091E805803208F051C0B0
:102A4000E091E80581E08E0F8093E8058091BB005E
:102A5000F0E0E853FA4F8083BDCF85EC8093BC0053
:102A60001092CF068091E805803230F4E091E805BD
:102A7000F0E0E853FA4F10826091E80570E0E091D1
:102A8000C605F091C70588EC95E009951092E80518
:102A900036C084E08093CF061092C5051092C4051D
:102AA000E091C205F091C30509958091C40581119B
:102AB00005C081E08093C4051092A205E091C50590
:102AC00081E08E0F8093C505F0E0EE55FA4F8081CE
:102AD0008093BB009091C5058091C405981708F4B8
:102AE00079CF85E88093BC000AC085EC8093BC0058
:102AF0001092CF0604C01092CD060E94B111FF9132
:102B0000EF91BF91AF919F918F917F916F915F9165
:102B10004F913F912F910F900FBE0F901F901895DE
:102B20002091F2069091D807213208F04AC0809196
:102B3000CF068111FCCF32E03093CF0631E03093E5
:102B4000CE063FEF3093CD061092CC062093CB06F5
:102B5000A2EDB6E04BEA56E0FA013E2F341B3217E5
:102B600018F43D913193F9CF1092AA062091AA064C
:102B7000990F922B9093AA069091A906913061F437
:102B80001092A9069091AA069093BB009091BC0068
:102B900093FDF8CF95EC01C095EE9093BC00909119
:102BA000CF069230E1F39091CD069F3F79F080916E
:102BB000CD06803241F08091CD06803331F084E043
:102BC00005C081E003C082E001C083E01092D1061D
:102BD0001092F2061092D00608959091CB07992397
:102BE00039F08EBD00000DB407FEFDCF8EB50895FF
:102BF00028E030E040E8E091CE07F091CF07508127
:102C00009091D507909595239083E091CC07F09112
:102C1000CD079091D407542F582319F05081952B4C
:102C200003C05081909595239083E091CE07F09159
:102C3000CF0750819091D507952B908346952150D1
:102C40003109C9F60895CF92DF92EF92FF920F9368
:102C50001F93CF93DF936C017A018B01C0E0D0E02A
:102C6000CE15DF0589F0D8016D918D01D601ED916A
:102C7000FC910190F081E02DC6010995892B11F49A
:102C80007E0102C02196ECCFC701DF91CF911F9149
:102C90000F91FF90EF90DF90CF90089580E094E047
:102CA000E4E0F1E0DF019C011D9221503040E1F7AA
:102CB0000895CF93C82F8091C6078F3F59F1E091B7
:102CC000D007F091D10780819091D607982B9083FF
:102CD000E091D207F091D30720819091D70790958A
:102CE00092239083E091D007F091D10720819091B9
:102CF000D6079095922390838C2F0E94ED15E0913A
:102D0000D007F091D10790818091D607892B8083DD
:102D1000CF9108958091C40791E09093D00680935D
:102D2000D8071092D1061092F20660E080E997E091
:102D30000E9439126C2F80E997E00E943912CF91DE
:102D40000C949015EF92FF920F931F93CF93DF9304
:102D500081E20E94591680E00E9459168FE70E9476
:102D6000591682E20E94591680E00E94591687E0A7
:102D70000E9459168091C6078F3F79F1E091D007E4
:102D8000F091D10790818091D607892B8083E091C3
:102D9000D207F091D30790818091D707892B808348
:102DA000E091D007F091D10790818091D60780956E
:102DB00089238083C4E0D1E089910E94ED1585E0EC
:102DC000C430D807C9F7E091D007F091D1079081BE
:102DD0008091D607892B808330C0F090B8008CE0BA
:102DE0008093B800C4E0D1E0EE24E3948091C4075E
:102DF000E092D0068093D8071092D1061092F20686
:102E000060E480E997E00E94391200E010E0FE01E2
:102E1000E00FF11F608180E997E00E9439120F5F97
:102E20001F4F0031110599F70E949015609685E0BB
:102E3000C430D807D9F6F092B800DF91CF911F9136
:102E40000F91FF90EF900895E091AA07F091AB07E2
:102E50000190F081E02D682F8AEA97E009945F9253
:102E60006F927F928F929F92AF92BF92CF92DF929A
:102E7000EF92FF920F931F93CF93DF936C015B014F
:102E80004A01E12CF12C00E010E0512C38016C0CCF
:102E90007D1C0815190544F5C0E0D0E0CE0187700F
:102EA0009927892B11F0550C0BC0FE0183E0F59595
:102EB000E7958A95E1F7EE0DFF1DEA0DFB1D549095
:102EC00057FE08C021E030E0A301BE018AEA97E086
:102ED0000E94FF102196C038D10501F70F5F1F4FE8
:102EE00080E1E80EF11CD2CFDF91CF911F910F91BD
:102EF000FF90EF90DF90CF90BF90AF909F908F901A
:102F00007F906F905F9008956115710579F0FB01D6
:102F100001900020E9F73197AF01461B570BDC0108
:102F2000ED91FC910280F381E02D099480E090E026
:102F300008954F925F926F927F92EF92FF920F935C
:102F40001F93CF93DF93CDB7DEB7A1970FB6F89459
:102F5000DEBF0FBECDBF7C01FA01CB0119A222302A
:102F600008F42AE08E010F5D1F4F422E512C612C78
:102F7000712CBF01A30192010E942124F901CA0111
:102F8000015011096A3014F4605D01C0695CD80118
:102F90006C93232B242B252B61F7B801C7010E94CA
:102FA0008417A1960FB6F894DEBF0FBECDBFDF9198
:102FB000CF911F910F91FF90EF907F906F905F9056
:102FC0004F9008950F931F93CF93DF93EC012AE066
:102FD0000E9499178C016CE875E0CE010E9484175D
:102FE000800F911FDF91CF911F910F9108954F9204
:102FF0005F926F927F928F929F92AF92BF92CF9289
:10300000DF92EF92FF926B017C01B42E9B01AC0129
:103010000E949026882319F066E975E027C02601F2
:103020003701E89477F82FEF3FEF4FE75FE7C301F1
:10303000B2010E94902681110DC02FEF3FEF4FE7A4
:103040005FE7C301B2010E94BF2418161CF46AE9AD
:1030500075E00CC02FEF3FEF4FE75FE4C701B6010B
:103060000E941E26181694F46EE975E08AEA97E02D
:10307000FF90EF90DF90CF90BF90AF909F908F9098
:103080007F906F905F904F900C9484172FEF3FEFDD
:103090004FE75FECC701B6010E94BF2487FDE4CF74
:1030A00020E030E0A901C701B6010E94BF2487FFDC
:1030B00009C08DE20E9424174C01F7FAF094F7F84A
:1030C000F09402C0812C912CA12C60E070E080E093
:1030D0009FE3AB1440F420E030E040E251E40E9472
:1030E000C424A394F6CF9B01AC01C701B6010E9492
:1030F00053242B013C010E943D256B017C010E9461
:103100006C259B01AC01C301B2010E9452242B012A
:103110003C012AE0B701A6018AEA97E00E949917CC
:103120007C01E80CF91CBB2029F08EE20E942417D8
:10313000E80EF91EDB2CDD2031F120E030E040E22A
:1031400051E4C301B2010E9423262B013C010E94DD
:103150003D254B01A12CB12C2AE0B501A4018AEA3E
:1031600097E00E949917E80EF91EC501B4010E946C
:103170006C259B01AC01C301B2010E9452242B01BA
:103180003C01DA94D8CFC701FF90EF90DF90CF9049
:10319000BF90AF909F908F907F906F905F904F9077
:1031A00008950F931F93CF93DF93EC010E94841730
:1031B0008C016CE875E0CE010E948417800F911F8E
:1031C000DF91CF911F910F910895CF93DF93CDB7EA
:1031D000DEB727970FB6F894DEBF0FBECDBF789449
:1031E00084B5826084BD84B5816084BD85B582600C
:1031F00085BD85B5816085BD80916E0081608093BD
:103200006E00109281008091810082608093810025
:103210008091810081608093810080918000816035
:10322000809380008091B10084608093B100809190
:10323000B00081608093B00080917A0084608093B8
:103240007A0080917A00826080937A0080917A007F
:10325000816080937A0080917A00806880937A0000
:103260001092C1001092F8051092F9051092FA051B
:103270001092FB051092F4051092F5051092F605D8
:103280001092F705109295061092960610929706E6
:10329000109298061092870610928806109289065E
:1032A00010928A0684E090E090939A0680939906A3
:1032B00088E592E090938C0680938B06E09103075B
:1032C000F091040792E09083E091FF06F0910007EF
:1032D0001082E0910107F09102078FEC8083109239
:1032E0000B07E0910707F091080786E08083E091E3
:1032F0000507F0910607808180618083E0910507D2
:10330000F0910607808188608083E0910507F09145
:103310000607808180688083E0910507F0910607A9
:1033200080818F7D80839093C5078CE38093C40751
:103330008091C6078F3F09F4BDC061E08091C80746
:103340000E94441361E08091CA070E944413809157
:10335000CA07082E000C990BFC01EC56F94FE491BA
:10336000F0E0EE0FFF1FE657F94F259134913093AF
:10337000D1072093D007FC01EA58F94FE491E0937C
:10338000D6078091C807082E000C990BFC01EC565B
:10339000F94FE491F0E0EE0FFF1FE657F94F25914A
:1033A00034913093D3072093D207FC01EA58F94FA8
:1033B000E491E093D7078091CB0781113EC061E093
:1033C0008091C6070E94441361E08091C7070E9464
:1033D00044138091C707082E000C990BFC01EC5692
:1033E000F94FE491F0E0EE0FFF1FE657F94F2591FA
:1033F00034913093CF072093CE07FC01EA58F94F60
:10340000E491E093D5078091C607082E000C990B34
:10341000FC01EC56F94FE491F0E0EE0FFF1FE65788
:10342000F94F259134913093CD072093CC07FC01BF
:10343000EA58F94FE491E093D4078091CB078823B1
:1034400009F45FC01FB7F8948091FC05811127C073
:10345000EEE9F6E08491E0E8F6E09491E82FF0E000
:10346000EE0FFF1FE459F94FA591B491EC91E923B8
:1034700021F461E08AE00E94141361E08AE00E9476
:1034800044138CB580618CBD8CB580648CBD61E0CB
:103490008DE00E94441361E08BE00E944413809110
:1034A000FC058F5F8093FC051FBF80E58CBD81E02C
:1034B0008DBD27C01092F3051092F2051092D1062F
:1034C0001092F2061092CF0681E08093CE06109201
:1034D000A90661E082E10E94141361E083E10E9489
:1034E00014138091B9008E7F8093B9008091B90048
:1034F0008D7F8093B90088E48093B80085E4809341
:10350000BC008091C90787FD1EC061E00E94441382
:1035100061E08091C9070E94141361E070E080E0CF
:1035200090E00E94841360E08091C9070E94141308
:103530006AE070E080E090E00E94841361E0809196
:10354000C9070E9414138EEA0E94591685ED0E9445
:10355000591680E80E94591688EA0E9459168FE38E
:103560000E94591683ED0E94591680E00E94591658
:1035700080E40E9459168DE80E94591684E10E9449
:10358000591680E20E94591680E00E94591681EA7D
:103590000E94591688EC0E9459168AED0E9459160D
:1035A00082E10E94591681E80E9459168FEC0E9410
:1035B000591689ED0E94591681EF0E9459168BED1C
:1035C0000E94591680E40E94591684EA0E945916F6
:1035D00086EA0E9459168EE20E9459168FEA0E94CE
:1035E000591680E0E82FF0E0E250FA4F10828F5F2A
:1035F0008138C1F78093FD050E94A2160E944E16E5
:1036000061E089E00E944413E1EBF6E0E491E330ED
:1036100019F150F4E130D1F0E230E1F584B5806287
:1036200084BD86E188BD3AC0E73011F1E83049F148
:10363000E43081F58091800080628093800086E193
:1036400090E090938B0080938A0028C084B58068B6
:1036500084BD86E187BD22C0809180008068809310
:10366000800086E190E0909389008093880016C0E6
:103670008091B00080688093B00086E18093B300B1
:103680000DC08091B00080628093B00086E180938D
:10369000B40004C060E089E00E94141383E992E161
:1036A0009093010180930001809169008C7F82607A
:1036B00080936900E89A60E775E083EF96E00E94E6
:1036C000D11885E090E09093A3078093A20722246D
:1036D0002394312C0E94BE134B015C010E94BE1347
:1036E0006B017C018091A4078B7F8093A4078CE9F8
:1036F00097E00E946C12182F8091A4078695817024
:10370000181789F00E94BE1360939E0770939F075D
:103710008093A0079093A1079091A40782E0892746
:103720008093A4073BC00E94BE1340909E07509018
:103730009F076090A0077090A107AB01BC014419DE
:103740005509660977098091A2079091A307A0E027
:10375000B0E0481759076A077B0700F19091A4076A
:1037600091701917D9F00E94BE1360939E07709351
:103770009F078093A0079093A1078091A40721E061
:10378000822784608093A4070E94BE136093A607DB
:103790007093A7078093A8079093A9078091A40727
:1037A00082FF0BC080FD09C08091A7069091A806FA
:1037B00001969093A8068093A7068091A306909106
:1037C000A406A091A506B091A606A5019401281B08
:1037D000390B4A0B5B0BDA01C90180349C49A10506
:1037E000B105E0F08092A3069092A406A092A506EF
:1037F000B092A6068091A7069091A806092E000C0B
:10380000AA0BBB0B80939F069093A006A093A106E2
:10381000B093A2061092A8061092A7068091A70660
:103820009091A80620919D0630919E0682179307DD
:1038300041F090939E0680939D0630929C062092C4
:103840009B068091A3069091A406A091A506B09135
:10385000A606A5019401281B390B4A0B5B0BDA0164
:10386000C90188399A43A105B10508F460C0809266
:10387000A3069092A406A092A506B092A606A091D7
:103880009906B0919A062091F8053091F90540917A
:10389000FA055091FB050E940E24609395067093E3
:1038A000960680939706909398060E946C2520EDCB
:1038B00034E448ED5BE30E9423262B013C01609336
:1038C000910670939206809393069093940620E05D
:1038D00030E04AE754E40E94C42460938D0670935C
:1038E0008E0680938F06909390068E010F5F1F4F78
:1038F00022E041E0C301B2010E940D21B80183EF33
:1039000096E00E94D11840919506509196066091DC
:1039100097067091980683EF96E00E94E217109246
:10392000F8051092F9051092FA051092FB058091A6
:10393000A3069091A406A091A506B091A606881AA8
:10394000990AAA0ABB0A44E684169104A104B104A8
:10395000B8F1A0918B06B0918C062091F4053091BE
:10396000F5054091F6055091F7050E940E24AB0134
:10397000BC01409387065093880660938906709334
:103980008A0683EF96E00E94E21780918706909165
:103990008806A0918906B0918A060197A109B1090C
:1039A0008093870690938806A0938906B0938A0631
:1039B0001092F4051092F5051092F6051092F70595
:1039C0008090910690909206A0909306B0909406F5
:1039D00020E030E040E251E4C501B4010E941E261F
:1039E00087FD0FC020E030E046EC52E4C501B40191
:1039F0000E94BF24181674F082E090E0A0E0B0E0CE
:103A00000DC023E030E040E050E02C833D834E8346
:103A10005F8308C083E090E0A0E0B0E08C839D83EA
:103A2000AE83BF8380908D0690908E06A0908F0607
:103A3000B090900620E030E040E251E4C501B401CE
:103A40000E941E2687FD10C020E030E046EC52E4C4
:103A5000C501B4010E94BF24181634F0E2E08E2E96
:103A6000912CA12CB12C05C073E0872E912CA12C98
:103A7000B12C83E480937C0080917A0080648093F1
:103A80007A0080917A0086FDFCCF60917800809169
:103A9000790070E0782B072E000C880B990B0E94A0
:103AA0006E2520E030E040EA50E40E94232620E02A
:103AB00030E040E85AE30E9423262B013C012DEC24
:103AC0003CEC4CEC5DE30E94BF2487FD09C04092B2
:103AD000830650928406609285067092860608C01E
:103AE0001092830610928406109285061092860624
:103AF00028EB3EE145E05FE360919106709192060C
:103B000080919306909194060E941E2687FD0EC018
:103B100061E08DE00E9414136EE170E080E090E0BF
:103B20000E94841360E08DE00E9414138091F805D8
:103B30009091F905A091FA05B091FB050197A105B7
:103B4000B10511F461E001C060E087E00E94141348
:103B500080917F0690918006A0918106B0918206A7
:103B6000A7019601281B390B4A0B5B0BDA01C9012F
:103B7000843F9140A105B10590F0C0927F06D0929C
:103B80008006E0928106F092820680919B069091D9
:103B90009C06019721F410929C0610929B0680913E
:103BA000950690919606A0919706B0919806892B5C
:103BB0008A2B8B2B09F445C00E944E16C0909106AB
:103BC000D0909206E0909306F090940620E030E0CA
:103BD00048EC52E4C701B6010E941E2687FDBBC017
:103BE00012E01093BE071092B7071092B607A2E337
:103BF000B0E0B093B907A093B80760918D067091BB
:103C00008E0680918F0690919006A4010E94F7176E
:103C10001093BE073092BD072092BC073092BB07BD
:103C20002092BA0724E430E03093B7072093B60718
:103C300042E350E05093B9074093B80760E875E05D
:103C4000B5C0C12CD12C0E944E1640E450E06CEB64
:103C50007AE080E090E00E942F179C2D8D2D45E6A4
:103C6000C416D10414F094E680E09A838B838A8191
:103C70009B8197FF02C01B821A82EE24E394F12CF1
:103C80000BE010E022E630E045E350E06EE170E04A
:103C90008AEA97E00E94090FAA81BB812D01BB0F20
:103CA00066087708C301B2010E946E2527ED33EA4A
:103CB00040E75FE30E9423260E94362507E010E0DC
:103CC0009B0147E350E060E270E08AEA97E00E94DF
:103CD000FD0F28E430E03093B7072093B60787E361
:103CE00090E09093B9078093B80731E03093BE0716
:103CF0003092BD072092BC073092BB072092BA07D2
:103D00004A815B814233510544F01092BD07109205
:103D1000BC071092BB071092BA072AE0B301A201B8
:103D20008AEA97E00E9499176EE775E08AEA97E0C1
:103D30000E9484170E94A21660EA70E080E090E082
:103D40000E9484135FEFC51AD50A85E6C816D10410
:103D500009F079CF31CF12E01093BE071092B70768
:103D60001092B60782E390E09093B9078093B8076A
:103D70004C815D81C701B6010E94F7171093BE0701
:103D80003092BD072092BC073092BB072092BA0741
:103D9000A4E4B0E0B093B707A093B60722E330E005
:103DA0003093B9072093B80766E875E08AEA97E090
:103DB0000E94D11888E290E09093B7078093B607ED
:103DC00042E350E05093B9074093B8076CE875E0C0
:103DD0008AEA97E00E94841752E0F52EF092BE071F
:103DE00084E490E09093B7078093B60703E210E075
:103DF0001093B9070093B8076FE875E08AEA97E077
:103E00000E94D118F092BE073092BD072092BC07E5
:103E10003092BB072092BA071092B7071092B607EC
:103E20001093B9070093B8074091950650919606F4
:103E300060919706709198068AEA97E00E94E217CF
:103E400040E250E06CEB78E080E090E00E942F17B9
:103E500023E333E343E550E46091830670918406E5
:103E600080918506909186060E941E2618160CF0F9
:103E700069C040E250E06CEB76E080E090E00E94A8
:103E80002F172AE939E949E550E4609183067091DA
:103E9000840680918506909186060E941E2618163B
:103EA0000CF050C040E250E06CEB76E08BEF9FEFFF
:103EB0000E942F1720E030E040E650E46091830636
:103EC0007091840680918506909186060E941E2638
:103ED0001816C4F540E250E06CEB76E086EF9FEFF9
:103EE0000E942F1726E636E646E650E460918306E8
:103EF0007091840680918506909186060E941E2608
:103F0000181604F540E250E06CEB76E081EF9FEF8D
:103F10000E942F1723E333E343E750E460918306C5
:103F20007091840680918506909186060E941E26D7
:103F3000181644F440E250E06CEB76E08CEE9FEF14
:103F40000E942F178091870690918806A09189067C
:103F5000B0918A06BC01CD0135E0660F771F881F3E
:103F6000991F3A95D1F728EB33E140E050E00E94E9
:103F7000EF2320937E062093FE0591E09093FD05AC
:103F800040E2C42ED12C6091FD056135E8F470E06B
:103F9000FB01E350FA4F80818601081B1109EE24D2
:103FA000E394F12C9B0140E250E08AEA97E00E9402
:103FB000680F60E070E0CB010E9484138091FD05E2
:103FC0008F5F8093FD05DFCF85E590E09093B70785
:103FD0008093B6071092B9071092B80712E01093B9
:103FE000BE073092BD072092BC073092BB072092DB
:103FF000BA074091F8055091F9056091FA05709162
:10400000FB058AEA97E00E94E2178AE590E0909328
:10401000B7078093B60782E190E09093B907809349
:10402000B8071093BE073092BD072092BC073092AC
:10403000BB072092BA0763E975E08AEA97E00E941D
:104040008417EE24E394F12C00E210E020E030E04D
:1040500040E050E060E070E08AEA97E00E94680F7C
:1040600020E530E040E050E060E570E08AEA97E06B
:104070000E94680F1092FD054091FD054832F8F44A
:1040800050E0EE24E394F12C8A012BE430E060E56B
:1040900070E08AEA97E00E94680F4091FD0550E0C9
:1040A0008A0125E030E060E070E08AEA97E00E9453
:1040B000680F8091FD05865F8093FD05DDCF8AE066
:1040C0008093FD051091FD05103570F4612F70E0AF
:1040D00021E030E040E050E08AEA97E00E94690B7E
:1040E000165F1093FD05EECF0E94A2160E94A21645
:1040F0000E944E1620E5822F90E082509A4FFC01DC
:10410000329730813196308321502230A0F72093AE
:10411000FD050E945A08DECAE3EFF6E01382128220
:1041200088EE93E0A0E0B0E084839583A683B78314
:104130002CE135E03183208325EC30E0358724877E
:1041400024EC30E03787268720EC30E0318B208B61
:1041500021EC30E0338B228B22EC30E0358B248B4A
:1041600026EC30E0378B268B118E128E138E148E38
:10417000E0E9F7E01382128284839583A683B783F4
:104180008EE295E091838083EAEAF7E0138212825F
:1041900020E830E03583248380E490E097838683B1
:1041A0003187208793878287158A1586148617861C
:1041B000168681E0848B2FEF3FEF338B228B318B80
:1041C000208B868B178A118E108E88E495E0918360
:1041D00080838FEF848F80A3868F858F85E0878F84
:1041E000ECE9F7E080E495E091838083128213820A
:1041F000148215828AE090E0978386831086118668
:104200000E947B2124E630E040E050E00E94EF2352
:104210007093DA076093D9070895EF920F931F9375
:10422000CF93DF93E80147FD02C034E001C034E1E1
:10423000E42F440FFF0BF7FF03C0F195E195F1095F
:10424000E32E022F2E2FAE010E948921CE01DF9195
:10425000CF911F910F91EF9008958F929F92AF92FF
:10426000BF92CF92DF92EF92FF92CF93DF93EC0158
:10427000688179818A819B8161157105810591052C
:1042800021F464E279ED8BE597E02DE133EF41E035
:1042900050E00E94EF2349015A019B01AC01A7EABB
:1042A000B1E40E940E246B017C01ACEEB4EFA501D9
:1042B00094010E941C24DC01CB018C0D9D1DAE1DC0
:1042C000BF1DB7FF03C00197A109B0488883998338
:1042D000AA83BB83BC01CD019F77DF91CF91FF9073
:1042E000EF90DF90CF90BF90AF909F908F90089508
:1042F0000E942D21089584E095E00E942D210895CB
:104300006093040570930505809306059093070557
:1043100008954F925F926F927F929F92AF92BF9259
:10432000CF92DF92EF92FF920F931F93CF93DF9381
:10433000CDB7DEB729970FB6F894DEBF0FBECDBF5D
:104340006A01122FB02E2BE3201720F0FF24F394E4
:10435000F00E02C0BCE3FB2E0F2D27E0AE014F5F35
:104360005F4F0E941723AC018981982F997091307B
:1043700031F0E1FC06C0E0FE06C090E205C09DE21F
:1043800003C09BE201C090E0EE2DE07183FF3CC0D2
:10439000911102C083E001C084E0811718F4212F3D
:1043A000281B01C020E0E1110BC0F601822F30E292
:1043B000882319F031938150FBCFC20ED11C20E02D
:1043C000992329F0D6019C93F60131966F01C6011D
:1043D0000396E2FE0AC03EE4D6013C9341E4119606
:1043E0004C93119712963C9306C03EE6F60130833B
:1043F00041E641833283FC01322F40E2332309F44A
:1044000042C041933150FACF82FF44C0911102C0A3
:1044100083E001C084E0811718F4212F281B01C01C
:1044200020E0E1110BC0F601822F30E2882319F061
:1044300031938150FBCFC20ED11C20E0992329F08B
:10444000D6019C93F60131966F01C6010396E2FEF8
:104450000BC039E4D6013C933EE411963C9311978E
:1044600036E412963C9307C039E6F60130833EE607
:10447000318336E63283FC01322F40E2332319F0D8
:1044800041933150FBCFFC01E20FF11D10828EEF02
:104490009FEFB7C0F1E0911101C0F0E06F2F70E025
:1044A0001416150624F49A012F5F3F4F02C021E035
:1044B00030E0260F371FBB2029F06B2D70E06F5FB7
:1044C0007F4F02C060E070E0260F371F612F70E061
:1044D000261737071CF4121B212F01C020E03E2DA8
:1044E000387159F4D601322F60E2332319F06D93FD
:1044F0003150FBCFC20ED11C20E0FF2331F0D6019A
:104500009C93B6016F5F7F4F6B01E1110BC0F60109
:10451000922F30E3992319F031939150FBCFC20EC3
:10452000D11C20E09F2D940F3A81782F7071A72E17
:1045300084FF03C0313309F49150191624F49930E3
:1045400018F098E001C091E0E42F852F57FF02C0DA
:10455000E0E080E06E2F782FE0E0F0E0AEE29A2E0F
:104560003A01691A71082A01461A570A0B2D10E000
:104570001195019511096F3F8FEF780729F4D60146
:104580009C92C60101966C014617570784F0661687
:1045900077066CF47F01E40CF51CA1E0B0E0AC0FF1
:1045A000BD1FEA0EFB1ED7011196BC9002C090E31E
:1045B000B92E615071093196C60101967C016017D0
:1045C000710724F0D601BC926C01D5CF6417750732
:1045D00041F4363320F4353321F4A11002C081E3D5
:1045E000B82EF601B082F701822F90E2882319F0ED
:1045F00091938150FBCFF701E20FF11D108280E013
:1046000090E029960FB6F894DEBF0FBECDBFDF91C4
:10461000CF911F910F91FF90EF90DF90CF90BF90BF
:10462000AF909F907F906F905F904F90089528304B
:1046300008F027E03327DA01990F311D87FD9160DB
:1046400000966105710539F432602E5F3D9330E3C9
:104650002A95E1F708959F3F30F080387105610594
:1046600009F03C5F3C5F3D93913008F08068911DFC
:10467000DF93CF931F930F93FF92EF92192F987FA1
:104680009695E92F96959695E90FFF27EE53FF4FE4
:1046900099273327EE24FF24A701E701059008940A
:1046A000079428F4360FE71EF81E491F511D660FA8
:1046B000771F881F991F0694A1F70590079428F487
:1046C000E70EF81E491F561FC11D770F881F991F3F
:1046D000661F0694A1F70590079428F4F80E491F69
:1046E000561FC71FD11D880F991F661F771F06947D
:1046F000A1F70590079420F4490F561FC71FD81F34
:10470000990F661F771F881F0694A9F7849110954B
:10471000177041F0D695C79557954795F794E7944C
:104720001A95C1F7E8E6F0E0689415901591359177
:104730006591959105907FE27395E118F10A430B1D
:10474000560BC90BD009C0F7E10CF11E431F561FD1
:10475000C91FD01D7EF4703311F48A95E6CFE8941A
:10476000015030F0080F0AF40027021708F4202F38
:104770002395022F7A3328F079E37D932A95E9F780
:1047800010C07D932A9589F606949795679537957D
:1047900017951794E118F10A430B560BC90BD00972
:1047A00098F023957E9173957A3308F070E37C93AB
:1047B0002013B8F77E9170617D9330F0839571E39B
:1047C0007D9370E32A95E1F71124EF90FF900F910C
:1047D0001F91CF91DF91992787FD90950895052E20
:1047E00097FB1EF400940E94062457FD07D00E94F8
:1047F000212407FC03D04EF40C94062450954095D8
:10480000309521953F4F4F4F5F4F0895909580957C
:10481000709561957F4F8F4F9F4F08950E9443245D
:10482000A59F900DB49F900DA49F800D911D112404
:104830000895B7FF0C940E240E940E24821B930B44
:104840000895A1E21A2EAA1BBB1BFD010DC0AA1FD1
:10485000BB1FEE1FFF1FA217B307E407F50720F0E9
:10486000A21BB30BE40BF50B661F771F881F991F64
:104870001A9469F760957095809590959B01AC01AD
:10488000BD01CF010895A29FB001B39FC001A39FB6
:10489000700D811D1124911DB29F700D811D112479
:1048A000911D08955058BB27AA270E946A240C9492
:1048B000E4250E94D62538F00E94DD2520F039F449
:1048C0009F3F19F426F40C94D3250EF4E095E7FBF2
:1048D0000C94CD25E92F0E94F52558F3BA176207ED
:1048E00073078407950720F079F4A6F50C94172632
:1048F0000EF4E0950B2EBA2FA02D0B01B9019001FB
:104900000C01CA01A0011124FF27591B99F0593F3E
:1049100050F4503E68F11A16F040A22F232F342F86
:104920004427585FF3CF469537952795A795F040D4
:104930005395C9F77EF41F16BA0B620B730B840BE9
:10494000BAF09150A1F0FF0FBB1F661F771F881FA1
:10495000C2F70EC0BA0F621F731F841F48F48795F9
:1049600077956795B795F7959E3F08F0B0CF9395EB
:10497000880F08F09927EE0F9795879508950E9464
:10498000A92508F481E008950E94D8240C94E42518
:104990000E94DD2558F00E94D62540F029F45F3FA3
:1049A00029F00C94CD2551110C9418260C94D32584
:1049B0000E94F52568F39923B1F3552391F3951BD4
:1049C000550BBB27AA2762177307840738F09F5F30
:1049D0005F4F220F331F441FAA1FA9F335D00E2E9D
:1049E0003AF0E0E832D091505040E695001CCAF70A
:1049F0002BD0FE2F29D0660F771F881FBB1F2617CD
:104A000037074807AB07B0E809F0BB0B802DBF01A3
:104A1000FF2793585F4F3AF09E3F510578F00C9472
:104A2000CD250C9418265F3FE4F3983ED4F3869589
:104A300077956795B795F7959F5FC9F7880F911D93
:104A40009695879597F90895E1E0660F771F881F7F
:104A5000BB1F621773078407BA0720F0621B730B32
:104A6000840BBA0BEE1F88F7E09508950E943D2550
:104A70006894B1110C94182608950E94FD2588F0C1
:104A80009F5798F0B92F9927B751B0F0E1F0660F12
:104A9000771F881F991F1AF0BA95C9F714C0B13053
:104AA00091F00E941726B1E008950C941726672F05
:104AB000782F8827B85F39F0B93FCCF38695779582
:104AC0006795B395D9F73EF490958095709561956B
:104AD0007F4F8F4F9F4F0895E89409C097FB3EF496
:104AE00090958095709561957F4F8F4F9F4F99233B
:104AF000A9F0F92F96E9BB279395F69587957795B9
:104B00006795B795F111F8CFFAF4BB0F11F460FF78
:104B10001BC06F5F7F4F8F4F9F4F16C0882311F0D0
:104B200096E911C0772321F09EE8872F762F05C0E4
:104B3000662371F096E8862F70E060E02AF09A957F
:104B4000660F771F881FDAF7880F9695879597F974
:104B50000895990F0008550FAA0BE0E8FEEF16160E
:104B60001706E807F907C0F012161306E407F50761
:104B700098F0621B730B840B950B39F40A2661F0D5
:104B8000232B242B252B21F408950A2609F4A14078
:104B9000A6958FEF811D811D089597F99F6780E885
:104BA00070E060E008959FEF80EC089500240A947F
:104BB0001616170618060906089500240A941216F8
:104BC0001306140605060895092E0394000C11F42B
:104BD000882352F0BB0F40F4BF2B11F460FF04C0D8
:104BE0006F5F7F4F8F4F9F4F089557FD9058440F31
:104BF000551F59F05F3F71F04795880F97FB991F3C
:104C000061F09F3F79F087950895121613061406F8
:104C1000551FF2CF4695F1DF08C016161706180685
:104C2000991FF1CF86957105610508940895E89460
:104C3000BB2766277727CB0197F908950E94A925FE
:104C400008F48FEF08950E9436260C94E4250E9404
:104C5000D62538F00E94DD2520F0952311F00C9424
:104C6000CD250C94D32511240C9418260E94F525EB
:104C700070F3959FC1F3950F50E0551F629FF001AF
:104C8000729FBB27F00DB11D639FAA27F00DB11DC8
:104C9000AA1F649F6627B00DA11D661F829F222751
:104CA000B00DA11D621F739FB00DA11D621F839FD8
:104CB000A00D611D221F749F3327A00D611D231FAE
:104CC000849F600D211D822F762F6A2F11249F57FC
:104CD00050409AF0F1F088234AF0EE0FFF1FBB1FFF
:104CE000661F771F881F91505040A9F79E3F5105BE
:104CF00080F00C94CD250C9418265F3FE4F3983E89
:104D0000D4F3869577956795B795F795E7959F5F67
:104D1000C1F7FE2B880F911D9695879597F90895F9
:104D20000E94A925880B990B0895EE0FFF1F05908F
:104D3000F491E02D099481E090E0F8940C94A02681
:044D4000F894FFCF15
:104D4400B208B208000000000000000000000000EB
:104D5400000000000000000000000000000000004F
:104D6400000000000000000000000000000000003F
:104D7400000000000000000000000000000000002F
:104D8400000000808080000000000000000000009F
:104D940000000000008080C0C0000000000000008F
:104DA40000000000000000000000000000000000FF
:104DB40000000000000000000000000000000000EF
:104DC40000000000000000000000000000000000DF
:104DD400000000000000000080C0E0F0F8FCF8E0F3
:104DE40000000000000000000000000000000000BF
:104DF40000808080808000808000000000808080AF
:104E0400808000FFFFFF00000000808080800000A1
:104E14008080000080FFFF80800080800080808090
:104E2400800080800000000000808000008C8E8460
:104E3400000080F8F8F88000000000000000000086
:104E440000000000F0F0F0F0F0F0F0F0F0F0F0F01E
:104E5400E0E0C08000E0FCFEFFFFFF7FFFFFFFFFFC
:104E6400FF0000000000000000000000000000FE41
:104E7400FFC70101010183FFFF00007CFEC70101A0
:104E8400010183FFFFFF0038FEC78301010183C7CF
:104E9400FFFF000001FFFF010100FFFF0701010107
:104EA40000007FFF80000000FFFF7F0000FFFFFF86
:104EB400000001FFFFFF01000000000000000000EF
:104EC40000000000030F3F7F7FFFFFFFFFFFFFFF96
:104ED400E7C7C78F8F9FBFFFFFC3C0F0FFFFFFFF70
:104EE400FFFCFCFCFCFCFCFCFCF8F8F0F0E0C0006F
:104EF4000103030303030103030000000001030390
:104F04000303010103010000000103030303010182
:104F1400030300000003030000000303000000007B
:104F24000000000103030303030100000001030167
:104F34000000000303010000000000000000000066
:104F44000000000000000080C0E0F0F9FFFFFFFF58
:104F5400FF3F1F0F87C7F7FFFF1F1F3DFCF8F8F83F
:104F6400F87C7DFFFFFFFFFFFFFFFF7F3F0F070080
:104F740030300000000000000000000000000000CD
:104F84000000000000000000FEFEFC000000000025
:104F9400000000000000000000000000000000000D
:104FA40000E0C000000000000000000000003030FD
:104FB40000000000000000000000000000000000ED
:104FC4000000000000C0FEFFFFFFFFFFFFFFFFFF28
:104FD4007F7F3F1F0F071F7FFFFFF8F8FFFFFFFFD3
:104FE400FFFEF8E0000000010000000000000000E7
:104FF400FEFE000000FCFEFC0C06060EFCF80000A1
:10500400F0F81C0E0606060CFFFFFF0000FEFE0073
:10501400000000FCFEFC00183C7E66E6CE84000026
:1050240006FFFF0606FCFEFC0C0606060000FEFE5C
:105034000000C0F8FC4E4646464E7C7840183C764C
:10504400E6CECC800000000000000000000000005C
:10505400000000000000000001070F1F1F3F3F3F3A
:105064003F1F0F03000000000000000000000000CC
:105074000F0F0000000F0F0F000000000F0F0000C3
:1050840003070E0C18180C060F0F0F0000010F0E6B
:105094000C180C0F070100040E0C180C0F0700006D
:1050A400000F0F00000F0F0F0000000000000F0F93
:1050B40000000007070C0C181C0C060600040E0C5C
:1050C400180C0F07000000000000000000000000A2
:1050D40000000000000000000000000000000000CC
:1050E40000000000000000000000000000000000BC
:1050F40000000000000000000000000000000000AC
:10510400000000000000000000000000000000009B
:10511400000000000000000000000000000000008B
:10512400000000000000000000000000000000007B
:10513400000000000000000000000000000000006B
:105144000000000001000000000103070F1F3F7F63
:105154000080C0E0F0F8FCFE00000000F107231618
:1051640089073808BA079807AC070000000039120D
:1051740009126912E3110112F211E4110000000096
:105184006C12801300000000330E2316691268129B
:10519400690B0611FF10D710F310E7100711D61092
:1051A400080C070CB3080D0AFD0FDF0F680F090F79
:1051B400537461727420636F756E74657200250098
:1051C4006D53762F68007553762F68000D0A0043DF
:1051D400504D004350006E616E00696E66006F763C
:0251E400660063
:00000001FF
